{
  "_format": "hh-sol-artifact-1",
  "contractName": "Doctor",
  "sourceName": "contracts/Doctor.sol",
  "abi": [
    {
      "inputs": [],
      "stateMutability": "nonpayable",
      "type": "constructor"
    },
    {
      "anonymous": false,
      "inputs": [
        {
          "indexed": false,
          "internalType": "uint256",
          "name": "_docid",
          "type": "uint256"
        },
        {
          "indexed": false,
          "internalType": "uint256",
          "name": "_dob",
          "type": "uint256"
        },
        {
          "indexed": false,
          "internalType": "string",
          "name": "_firstName",
          "type": "string"
        },
        {
          "indexed": false,
          "internalType": "string",
          "name": "_lastName",
          "type": "string"
        }
      ],
      "name": "DocRegistered",
      "type": "event"
    },
    {
      "anonymous": false,
      "inputs": [
        {
          "indexed": false,
          "internalType": "uint256",
          "name": "field",
          "type": "uint256"
        },
        {
          "indexed": false,
          "internalType": "string",
          "name": "fileHash",
          "type": "string"
        },
        {
          "indexed": false,
          "internalType": "uint256",
          "name": "fileSize",
          "type": "uint256"
        },
        {
          "indexed": false,
          "internalType": "string",
          "name": "fileType",
          "type": "string"
        },
        {
          "indexed": false,
          "internalType": "string",
          "name": "fileName",
          "type": "string"
        },
        {
          "indexed": false,
          "internalType": "uint256",
          "name": "uploadTime",
          "type": "uint256"
        },
        {
          "indexed": false,
          "internalType": "address payable",
          "name": "uploader",
          "type": "address"
        }
      ],
      "name": "FileUploaded",
      "type": "event"
    },
    {
      "inputs": [],
      "name": "docCount",
      "outputs": [
        {
          "internalType": "uint256",
          "name": "",
          "type": "uint256"
        }
      ],
      "stateMutability": "view",
      "type": "function"
    },
    {
      "inputs": [
        {
          "internalType": "address",
          "name": "",
          "type": "address"
        }
      ],
      "name": "docList",
      "outputs": [
        {
          "internalType": "uint256",
          "name": "id",
          "type": "uint256"
        },
        {
          "internalType": "uint256",
          "name": "dob",
          "type": "uint256"
        },
        {
          "internalType": "string",
          "name": "firstName",
          "type": "string"
        },
        {
          "internalType": "string",
          "name": "lastName",
          "type": "string"
        }
      ],
      "stateMutability": "view",
      "type": "function"
    },
    {
      "inputs": [],
      "name": "fileCount",
      "outputs": [
        {
          "internalType": "uint256",
          "name": "",
          "type": "uint256"
        }
      ],
      "stateMutability": "view",
      "type": "function"
    },
    {
      "inputs": [
        {
          "internalType": "address",
          "name": "",
          "type": "address"
        },
        {
          "internalType": "uint256",
          "name": "",
          "type": "uint256"
        }
      ],
      "name": "files",
      "outputs": [
        {
          "internalType": "uint256",
          "name": "field",
          "type": "uint256"
        },
        {
          "internalType": "string",
          "name": "fileHash",
          "type": "string"
        },
        {
          "internalType": "uint256",
          "name": "fileSize",
          "type": "uint256"
        },
        {
          "internalType": "string",
          "name": "fileType",
          "type": "string"
        },
        {
          "internalType": "string",
          "name": "fileName",
          "type": "string"
        },
        {
          "internalType": "uint256",
          "name": "uploadTime",
          "type": "uint256"
        },
        {
          "internalType": "address payable",
          "name": "uploader",
          "type": "address"
        }
      ],
      "stateMutability": "view",
      "type": "function"
    },
    {
      "inputs": [],
      "name": "getFiles",
      "outputs": [
        {
          "components": [
            {
              "internalType": "uint256",
              "name": "field",
              "type": "uint256"
            },
            {
              "internalType": "string",
              "name": "fileHash",
              "type": "string"
            },
            {
              "internalType": "uint256",
              "name": "fileSize",
              "type": "uint256"
            },
            {
              "internalType": "string",
              "name": "fileType",
              "type": "string"
            },
            {
              "internalType": "string",
              "name": "fileName",
              "type": "string"
            },
            {
              "internalType": "uint256",
              "name": "uploadTime",
              "type": "uint256"
            },
            {
              "internalType": "address payable",
              "name": "uploader",
              "type": "address"
            }
          ],
          "internalType": "struct User.File",
          "name": "",
          "type": "tuple"
        }
      ],
      "stateMutability": "view",
      "type": "function"
    },
    {
      "inputs": [
        {
          "internalType": "uint256",
          "name": "_dob",
          "type": "uint256"
        },
        {
          "internalType": "string",
          "name": "_firstName",
          "type": "string"
        },
        {
          "internalType": "string",
          "name": "_lastName",
          "type": "string"
        }
      ],
      "name": "registerDoc",
      "outputs": [],
      "stateMutability": "nonpayable",
      "type": "function"
    },
    {
      "inputs": [
        {
          "internalType": "string",
          "name": "_fileHash",
          "type": "string"
        },
        {
          "internalType": "uint256",
          "name": "_fileSize",
          "type": "uint256"
        },
        {
          "internalType": "string",
          "name": "_fileType",
          "type": "string"
        },
        {
          "internalType": "string",
          "name": "_fileName",
          "type": "string"
        }
      ],
      "name": "uploadFile",
      "outputs": [],
      "stateMutability": "nonpayable",
      "type": "function"
    }
  ],
  "bytecode": "0x608060405260008055600060025534801561001957600080fd5b5061136b806100296000396000f3fe608060405234801561001057600080fd5b506004361061007d5760003560e01c8063439535191161005b57806343953519146100f25780634c4dc6e0146101105780635b4c42e51461012e578063e44451a7146101615761007d565b806320f21708146100825780632ba6978e1461009e5780632da96d73146100d4575b600080fd5b61009c60048036038101906100979190610d14565b61017d565b005b6100b860048036038101906100b39190610cd8565b6103c1565b6040516100cb9796959493929190610fd3565b60405180910390f35b6100dc6105d8565b6040516100e99190610f96565b60405180910390f35b6100fa6108a0565b6040516101079190610fb8565b60405180910390f35b6101186108a6565b6040516101259190610fb8565b60405180910390f35b61014860048036038101906101439190610caf565b6108ac565b6040516101589493929190611057565b60405180910390f35b61017b60048036038101906101769190610dbf565b6109ec565b005b600084511161018b57600080fd5b600082511161019957600080fd5b60008151116101a757600080fd5b600073ffffffffffffffffffffffffffffffffffffffff163373ffffffffffffffffffffffffffffffffffffffff1614156101e157600080fd5b600083116101ee57600080fd5b60008081548092919061020090611220565b9190505550600160003373ffffffffffffffffffffffffffffffffffffffff1673ffffffffffffffffffffffffffffffffffffffff1681526020019081526020016000206040518060e0016040528060005481526020018681526020018581526020018481526020018381526020014281526020013373ffffffffffffffffffffffffffffffffffffffff1681525090806001815401808255809150506001900390600052602060002090600702016000909190919091506000820151816000015560208201518160010190805190602001906102de929190610b27565b50604082015181600201556060820151816003019080519060200190610305929190610b27565b506080820151816004019080519060200190610322929190610b27565b5060a0820151816005015560c08201518160060160006101000a81548173ffffffffffffffffffffffffffffffffffffffff021916908373ffffffffffffffffffffffffffffffffffffffff16021790555050507f8afab45e252455189e0428faed31ed4afc4c187924fd4f30fcf4fef26b5435366000548585858542336040516103b39796959493929190610fd3565b60405180910390a150505050565b600160205281600052604060002081815481106103dd57600080fd5b906000526020600020906007020160009150915050806000015490806001018054610407906111bd565b80601f0160208091040260200160405190810160405280929190818152602001828054610433906111bd565b80156104805780601f1061045557610100808354040283529160200191610480565b820191906000526020600020905b81548152906001019060200180831161046357829003601f168201915b50505050509080600201549080600301805461049b906111bd565b80601f01602080910402602001604051908101604052809291908181526020018280546104c7906111bd565b80156105145780601f106104e957610100808354040283529160200191610514565b820191906000526020600020905b8154815290600101906020018083116104f757829003601f168201915b505050505090806004018054610529906111bd565b80601f0160208091040260200160405190810160405280929190818152602001828054610555906111bd565b80156105a25780601f10610577576101008083540402835291602001916105a2565b820191906000526020600020905b81548152906001019060200180831161058557829003601f168201915b5050505050908060050154908060060160009054906101000a900473ffffffffffffffffffffffffffffffffffffffff16905087565b6105e0610bad565b600160003373ffffffffffffffffffffffffffffffffffffffff1673ffffffffffffffffffffffffffffffffffffffff168152602001908152602001600020600081548110610658577f4e487b7100000000000000000000000000000000000000000000000000000000600052603260045260246000fd5b90600052602060002090600702016040518060e00160405290816000820154815260200160018201805461068b906111bd565b80601f01602080910402602001604051908101604052809291908181526020018280546106b7906111bd565b80156107045780601f106106d957610100808354040283529160200191610704565b820191906000526020600020905b8154815290600101906020018083116106e757829003601f168201915b5050505050815260200160028201548152602001600382018054610727906111bd565b80601f0160208091040260200160405190810160405280929190818152602001828054610753906111bd565b80156107a05780601f10610775576101008083540402835291602001916107a0565b820191906000526020600020905b81548152906001019060200180831161078357829003601f168201915b505050505081526020016004820180546107b9906111bd565b80601f01602080910402602001604051908101604052809291908181526020018280546107e5906111bd565b80156108325780601f1061080757610100808354040283529160200191610832565b820191906000526020600020905b81548152906001019060200180831161081557829003601f168201915b50505050508152602001600582015481526020016006820160009054906101000a900473ffffffffffffffffffffffffffffffffffffffff1673ffffffffffffffffffffffffffffffffffffffff1673ffffffffffffffffffffffffffffffffffffffff1681525050905090565b60005481565b60025481565b60036020528060005260406000206000915090508060000154908060010154908060020180546108db906111bd565b80601f0160208091040260200160405190810160405280929190818152602001828054610907906111bd565b80156109545780601f1061092957610100808354040283529160200191610954565b820191906000526020600020905b81548152906001019060200180831161093757829003601f168201915b505050505090806003018054610969906111bd565b80601f0160208091040260200160405190810160405280929190818152602001828054610995906111bd565b80156109e25780601f106109b7576101008083540402835291602001916109e2565b820191906000526020600020905b8154815290600101906020018083116109c557829003601f168201915b5050505050905084565b600060025410156109fc57600080fd5b6000825111610a0a57600080fd5b6000815111610a1857600080fd5b60026000815480929190610a2b90611220565b91905055506040518060800160405280600254815260200184815260200183815260200182815250600360003373ffffffffffffffffffffffffffffffffffffffff1673ffffffffffffffffffffffffffffffffffffffff16815260200190815260200160002060008201518160000155602082015181600101556040820151816002019080519060200190610ac2929190610b27565b506060820151816003019080519060200190610adf929190610b27565b509050507f736e9f6a8a9268d693adb56408f2dba4fc237b572243e23fb4c0408b4c9c7da4600254848484604051610b1a9493929190611057565b60405180910390a1505050565b828054610b33906111bd565b90600052602060002090601f016020900481019282610b555760008555610b9c565b82601f10610b6e57805160ff1916838001178555610b9c565b82800160010185558215610b9c579182015b82811115610b9b578251825591602001919060010190610b80565b5b509050610ba99190610c00565b5090565b6040518060e00160405280600081526020016060815260200160008152602001606081526020016060815260200160008152602001600073ffffffffffffffffffffffffffffffffffffffff1681525090565b5b80821115610c19576000816000905550600101610c01565b5090565b6000610c30610c2b846110cf565b6110aa565b905082815260208101848484011115610c4857600080fd5b610c5384828561117b565b509392505050565b600081359050610c6a81611307565b92915050565b600082601f830112610c8157600080fd5b8135610c91848260208601610c1d565b91505092915050565b600081359050610ca98161131e565b92915050565b600060208284031215610cc157600080fd5b6000610ccf84828501610c5b565b91505092915050565b60008060408385031215610ceb57600080fd5b6000610cf985828601610c5b565b9250506020610d0a85828601610c9a565b9150509250929050565b60008060008060808587031215610d2a57600080fd5b600085013567ffffffffffffffff811115610d4457600080fd5b610d5087828801610c70565b9450506020610d6187828801610c9a565b935050604085013567ffffffffffffffff811115610d7e57600080fd5b610d8a87828801610c70565b925050606085013567ffffffffffffffff811115610da757600080fd5b610db387828801610c70565b91505092959194509250565b600080600060608486031215610dd457600080fd5b6000610de286828701610c9a565b935050602084013567ffffffffffffffff811115610dff57600080fd5b610e0b86828701610c70565b925050604084013567ffffffffffffffff811115610e2857600080fd5b610e3486828701610c70565b9150509250925092565b610e478161113f565b82525050565b610e568161113f565b82525050565b6000610e6782611100565b610e71818561110b565b9350610e8181856020860161118a565b610e8a816112f6565b840191505092915050565b6000610ea082611100565b610eaa818561111c565b9350610eba81856020860161118a565b610ec3816112f6565b840191505092915050565b600060e083016000830151610ee66000860182610f78565b5060208301518482036020860152610efe8282610e5c565b9150506040830151610f136040860182610f78565b5060608301518482036060860152610f2b8282610e5c565b91505060808301518482036080860152610f458282610e5c565b91505060a0830151610f5a60a0860182610f78565b5060c0830151610f6d60c0860182610e3e565b508091505092915050565b610f8181611171565b82525050565b610f9081611171565b82525050565b60006020820190508181036000830152610fb08184610ece565b905092915050565b6000602082019050610fcd6000830184610f87565b92915050565b600060e082019050610fe8600083018a610f87565b8181036020830152610ffa8189610e95565b90506110096040830188610f87565b818103606083015261101b8187610e95565b9050818103608083015261102f8186610e95565b905061103e60a0830185610f87565b61104b60c0830184610e4d565b98975050505050505050565b600060808201905061106c6000830187610f87565b6110796020830186610f87565b818103604083015261108b8185610e95565b9050818103606083015261109f8184610e95565b905095945050505050565b60006110b46110c5565b90506110c082826111ef565b919050565b6000604051905090565b600067ffffffffffffffff8211156110ea576110e96112c7565b5b6110f3826112f6565b9050602081019050919050565b600081519050919050565b600082825260208201905092915050565b600082825260208201905092915050565b600061113882611151565b9050919050565b600061114a82611151565b9050919050565b600073ffffffffffffffffffffffffffffffffffffffff82169050919050565b6000819050919050565b82818337600083830152505050565b60005b838110156111a857808201518184015260208101905061118d565b838111156111b7576000848401525b50505050565b600060028204905060018216806111d557607f821691505b602082108114156111e9576111e8611298565b5b50919050565b6111f8826112f6565b810181811067ffffffffffffffff82111715611217576112166112c7565b5b80604052505050565b600061122b82611171565b91507fffffffffffffffffffffffffffffffffffffffffffffffffffffffffffffffff82141561125e5761125d611269565b5b600182019050919050565b7f4e487b7100000000000000000000000000000000000000000000000000000000600052601160045260246000fd5b7f4e487b7100000000000000000000000000000000000000000000000000000000600052602260045260246000fd5b7f4e487b7100000000000000000000000000000000000000000000000000000000600052604160045260246000fd5b6000601f19601f8301169050919050565b6113108161112d565b811461131b57600080fd5b50565b61132781611171565b811461133257600080fd5b5056fea2646970667358221220ff47113182fa562f2d2b4535904764f04a6235561e4f9f2f9a4bbc3e639c206664736f6c63430008040033",
  "linkReferences": {},
  "deployedLinkReferences": {}
}