{
  "_format": "hh-sol-artifact-1",
  "contractName": "Doctor",
  "sourceName": "contracts/Doctor.sol",
  "abi": [
    {
      "inputs": [],
      "stateMutability": "nonpayable",
      "type": "constructor"
    },
    {
      "anonymous": false,
      "inputs": [
        {
          "indexed": false,
          "internalType": "uint256",
          "name": "_docid",
          "type": "uint256"
        },
        {
          "indexed": false,
          "internalType": "uint256",
          "name": "_dob",
          "type": "uint256"
        },
        {
          "indexed": false,
          "internalType": "string",
          "name": "_firstName",
          "type": "string"
        },
        {
          "indexed": false,
          "internalType": "string",
          "name": "_lastName",
          "type": "string"
        }
      ],
      "name": "DocRegistered",
      "type": "event"
    },
    {
      "anonymous": false,
      "inputs": [
        {
          "indexed": false,
          "internalType": "address",
          "name": "sender",
          "type": "address"
        },
        {
          "indexed": false,
          "internalType": "address",
          "name": "receiver",
          "type": "address"
        },
        {
          "components": [
            {
              "internalType": "uint256",
              "name": "field",
              "type": "uint256"
            },
            {
              "internalType": "string",
              "name": "fileHash",
              "type": "string"
            },
            {
              "internalType": "uint256",
              "name": "fileSize",
              "type": "uint256"
            },
            {
              "internalType": "string",
              "name": "fileType",
              "type": "string"
            },
            {
              "internalType": "string",
              "name": "fileName",
              "type": "string"
            },
            {
              "internalType": "uint256",
              "name": "uploadTime",
              "type": "uint256"
            },
            {
              "internalType": "address payable",
              "name": "uploader",
              "type": "address"
            }
          ],
          "indexed": false,
          "internalType": "struct User.File",
          "name": "file",
          "type": "tuple"
        }
      ],
      "name": "FileShared",
      "type": "event"
    },
    {
      "anonymous": false,
      "inputs": [
        {
          "indexed": false,
          "internalType": "uint256",
          "name": "field",
          "type": "uint256"
        },
        {
          "indexed": false,
          "internalType": "string",
          "name": "fileHash",
          "type": "string"
        },
        {
          "indexed": false,
          "internalType": "uint256",
          "name": "fileSize",
          "type": "uint256"
        },
        {
          "indexed": false,
          "internalType": "string",
          "name": "fileType",
          "type": "string"
        },
        {
          "indexed": false,
          "internalType": "string",
          "name": "fileName",
          "type": "string"
        },
        {
          "indexed": false,
          "internalType": "uint256",
          "name": "uploadTime",
          "type": "uint256"
        },
        {
          "indexed": false,
          "internalType": "address payable",
          "name": "uploader",
          "type": "address"
        }
      ],
      "name": "FileUploaded",
      "type": "event"
    },
    {
      "inputs": [],
      "name": "docCount",
      "outputs": [
        {
          "internalType": "uint256",
          "name": "",
          "type": "uint256"
        }
      ],
      "stateMutability": "view",
      "type": "function"
    },
    {
      "inputs": [
        {
          "internalType": "address",
          "name": "",
          "type": "address"
        }
      ],
      "name": "docList",
      "outputs": [
        {
          "internalType": "uint256",
          "name": "id",
          "type": "uint256"
        },
        {
          "internalType": "uint256",
          "name": "dob",
          "type": "uint256"
        },
        {
          "internalType": "string",
          "name": "firstName",
          "type": "string"
        },
        {
          "internalType": "string",
          "name": "lastName",
          "type": "string"
        }
      ],
      "stateMutability": "view",
      "type": "function"
    },
    {
      "inputs": [],
      "name": "fileCount",
      "outputs": [
        {
          "internalType": "uint256",
          "name": "",
          "type": "uint256"
        }
      ],
      "stateMutability": "view",
      "type": "function"
    },
    {
      "inputs": [
        {
          "internalType": "address",
          "name": "",
          "type": "address"
        },
        {
          "internalType": "uint256",
          "name": "",
          "type": "uint256"
        }
      ],
      "name": "files",
      "outputs": [
        {
          "internalType": "uint256",
          "name": "field",
          "type": "uint256"
        },
        {
          "internalType": "string",
          "name": "fileHash",
          "type": "string"
        },
        {
          "internalType": "uint256",
          "name": "fileSize",
          "type": "uint256"
        },
        {
          "internalType": "string",
          "name": "fileType",
          "type": "string"
        },
        {
          "internalType": "string",
          "name": "fileName",
          "type": "string"
        },
        {
          "internalType": "uint256",
          "name": "uploadTime",
          "type": "uint256"
        },
        {
          "internalType": "address payable",
          "name": "uploader",
          "type": "address"
        }
      ],
      "stateMutability": "view",
      "type": "function"
    },
    {
      "inputs": [],
      "name": "getFiles",
      "outputs": [
        {
          "components": [
            {
              "internalType": "uint256",
              "name": "field",
              "type": "uint256"
            },
            {
              "internalType": "string",
              "name": "fileHash",
              "type": "string"
            },
            {
              "internalType": "uint256",
              "name": "fileSize",
              "type": "uint256"
            },
            {
              "internalType": "string",
              "name": "fileType",
              "type": "string"
            },
            {
              "internalType": "string",
              "name": "fileName",
              "type": "string"
            },
            {
              "internalType": "uint256",
              "name": "uploadTime",
              "type": "uint256"
            },
            {
              "internalType": "address payable",
              "name": "uploader",
              "type": "address"
            }
          ],
          "internalType": "struct User.File",
          "name": "",
          "type": "tuple"
        }
      ],
      "stateMutability": "view",
      "type": "function"
    },
    {
      "inputs": [],
      "name": "getSharedFiles",
      "outputs": [
        {
          "components": [
            {
              "internalType": "uint256",
              "name": "field",
              "type": "uint256"
            },
            {
              "internalType": "string",
              "name": "fileHash",
              "type": "string"
            },
            {
              "internalType": "uint256",
              "name": "fileSize",
              "type": "uint256"
            },
            {
              "internalType": "string",
              "name": "fileType",
              "type": "string"
            },
            {
              "internalType": "string",
              "name": "fileName",
              "type": "string"
            },
            {
              "internalType": "uint256",
              "name": "uploadTime",
              "type": "uint256"
            },
            {
              "internalType": "address payable",
              "name": "uploader",
              "type": "address"
            }
          ],
          "internalType": "struct User.File[]",
          "name": "",
          "type": "tuple[]"
        }
      ],
      "stateMutability": "view",
      "type": "function"
    },
    {
      "inputs": [],
      "name": "getSharedFilesCount",
      "outputs": [
        {
          "internalType": "uint8",
          "name": "",
          "type": "uint8"
        }
      ],
      "stateMutability": "view",
      "type": "function"
    },
    {
      "inputs": [],
      "name": "getUserType",
      "outputs": [
        {
          "internalType": "string",
          "name": "",
          "type": "string"
        }
      ],
      "stateMutability": "view",
      "type": "function"
    },
    {
      "inputs": [
        {
          "internalType": "uint256",
          "name": "_dob",
          "type": "uint256"
        },
        {
          "internalType": "string",
          "name": "_firstName",
          "type": "string"
        },
        {
          "internalType": "string",
          "name": "_lastName",
          "type": "string"
        }
      ],
      "name": "registerDoc",
      "outputs": [],
      "stateMutability": "nonpayable",
      "type": "function"
    },
    {
      "inputs": [
        {
          "internalType": "string",
          "name": "_userType",
          "type": "string"
        }
      ],
      "name": "setUserType",
      "outputs": [],
      "stateMutability": "nonpayable",
      "type": "function"
    },
    {
      "inputs": [
        {
          "components": [
            {
              "internalType": "uint256",
              "name": "field",
              "type": "uint256"
            },
            {
              "internalType": "string",
              "name": "fileHash",
              "type": "string"
            },
            {
              "internalType": "uint256",
              "name": "fileSize",
              "type": "uint256"
            },
            {
              "internalType": "string",
              "name": "fileType",
              "type": "string"
            },
            {
              "internalType": "string",
              "name": "fileName",
              "type": "string"
            },
            {
              "internalType": "uint256",
              "name": "uploadTime",
              "type": "uint256"
            },
            {
              "internalType": "address payable",
              "name": "uploader",
              "type": "address"
            }
          ],
          "internalType": "struct User.File",
          "name": "_file",
          "type": "tuple"
        },
        {
          "internalType": "address payable",
          "name": "_receiver",
          "type": "address"
        }
      ],
      "name": "shareFile",
      "outputs": [],
      "stateMutability": "nonpayable",
      "type": "function"
    },
    {
      "inputs": [
        {
          "internalType": "address",
          "name": "",
          "type": "address"
        },
        {
          "internalType": "uint256",
          "name": "",
          "type": "uint256"
        }
      ],
      "name": "sharedFiles",
      "outputs": [
        {
          "internalType": "uint256",
          "name": "field",
          "type": "uint256"
        },
        {
          "internalType": "string",
          "name": "fileHash",
          "type": "string"
        },
        {
          "internalType": "uint256",
          "name": "fileSize",
          "type": "uint256"
        },
        {
          "internalType": "string",
          "name": "fileType",
          "type": "string"
        },
        {
          "internalType": "string",
          "name": "fileName",
          "type": "string"
        },
        {
          "internalType": "uint256",
          "name": "uploadTime",
          "type": "uint256"
        },
        {
          "internalType": "address payable",
          "name": "uploader",
          "type": "address"
        }
      ],
      "stateMutability": "view",
      "type": "function"
    },
    {
      "inputs": [
        {
          "internalType": "string",
          "name": "_fileHash",
          "type": "string"
        },
        {
          "internalType": "uint256",
          "name": "_fileSize",
          "type": "uint256"
        },
        {
          "internalType": "string",
          "name": "_fileType",
          "type": "string"
        },
        {
          "internalType": "string",
          "name": "_fileName",
          "type": "string"
        }
      ],
      "name": "uploadFile",
      "outputs": [],
      "stateMutability": "nonpayable",
      "type": "function"
    },
    {
      "inputs": [
        {
          "internalType": "address",
          "name": "",
          "type": "address"
        }
      ],
      "name": "userType",
      "outputs": [
        {
          "internalType": "string",
          "name": "",
          "type": "string"
        }
      ],
      "stateMutability": "view",
      "type": "function"
    }
  ],
  "bytecode": "0x608060405260008055600060045534801561001957600080fd5b506121ad806100296000396000f3fe608060405234801561001057600080fd5b50600436106100ea5760003560e01c80635b4c42e51161008c578063b83458b011610066578063b83458b01461025c578063e44451a71461028c578063ea5530da146102a8578063edd490b4146102c6576100ea565b80635b4c42e5146101ef578063914e314414610222578063b12c9d9414610240576100ea565b806341990077116100c8578063419900771461015f578063439535191461017d5780634c4dc6e01461019b57806356041432146101b9576100ea565b806320f21708146100ef5780632ba6978e1461010b5780632da96d7314610141575b600080fd5b61010960048036038101906101049190611872565b6102e2565b005b610125600480360381019061012091906117f5565b610526565b6040516101389796959493929190611d67565b60405180910390f35b61014961073d565b6040516101569190611d2a565b60405180910390f35b610167610a05565b6040516101749190611d08565b60405180910390f35b610185610ad4565b6040516101929190611d4c565b60405180910390f35b6101a3610ada565b6040516101b09190611d4c565b60405180910390f35b6101d360048036038101906101ce91906117f5565b610ae0565b6040516101e69796959493929190611d67565b60405180910390f35b610209600480360381019061020491906117cc565b610cf7565b6040516102199493929190611deb565b60405180910390f35b61022a610e37565b6040516102379190611ce6565b60405180910390f35b61025a60048036038101906102559190611831565b6110fd565b005b610276600480360381019061027191906117cc565b6111ac565b6040516102839190611d08565b60405180910390f35b6102a660048036038101906102a19190611971565b61124c565b005b6102b0611387565b6040516102bd9190611e3e565b60405180910390f35b6102e060048036038101906102db919061191d565b6113d1565b005b60008451116102f057600080fd5b60008251116102fe57600080fd5b600081511161030c57600080fd5b600073ffffffffffffffffffffffffffffffffffffffff163373ffffffffffffffffffffffffffffffffffffffff16141561034657600080fd5b6000831161035357600080fd5b6000808154809291906103659061204b565b9190505550600160003373ffffffffffffffffffffffffffffffffffffffff1673ffffffffffffffffffffffffffffffffffffffff1681526020019081526020016000206040518060e0016040528060005481526020018681526020018581526020018481526020018381526020014281526020013373ffffffffffffffffffffffffffffffffffffffff168152509080600181540180825580915050600190039060005260206000209060070201600090919091909150600082015181600001556020820151816001019080519060200190610443929190611537565b5060408201518160020155606082015181600301908051906020019061046a929190611537565b506080820151816004019080519060200190610487929190611537565b5060a0820151816005015560c08201518160060160006101000a81548173ffffffffffffffffffffffffffffffffffffffff021916908373ffffffffffffffffffffffffffffffffffffffff16021790555050507f8afab45e252455189e0428faed31ed4afc4c187924fd4f30fcf4fef26b5435366000548585858542336040516105189796959493929190611d67565b60405180910390a150505050565b6001602052816000526040600020818154811061054257600080fd5b90600052602060002090600702016000915091505080600001549080600101805461056c90611fe8565b80601f016020809104026020016040519081016040528092919081815260200182805461059890611fe8565b80156105e55780601f106105ba576101008083540402835291602001916105e5565b820191906000526020600020905b8154815290600101906020018083116105c857829003601f168201915b50505050509080600201549080600301805461060090611fe8565b80601f016020809104026020016040519081016040528092919081815260200182805461062c90611fe8565b80156106795780601f1061064e57610100808354040283529160200191610679565b820191906000526020600020905b81548152906001019060200180831161065c57829003601f168201915b50505050509080600401805461068e90611fe8565b80601f01602080910402602001604051908101604052809291908181526020018280546106ba90611fe8565b80156107075780601f106106dc57610100808354040283529160200191610707565b820191906000526020600020905b8154815290600101906020018083116106ea57829003601f168201915b5050505050908060050154908060060160009054906101000a900473ffffffffffffffffffffffffffffffffffffffff16905087565b6107456115bd565b600160003373ffffffffffffffffffffffffffffffffffffffff1673ffffffffffffffffffffffffffffffffffffffff1681526020019081526020016000206000815481106107bd577f4e487b7100000000000000000000000000000000000000000000000000000000600052603260045260246000fd5b90600052602060002090600702016040518060e0016040529081600082015481526020016001820180546107f090611fe8565b80601f016020809104026020016040519081016040528092919081815260200182805461081c90611fe8565b80156108695780601f1061083e57610100808354040283529160200191610869565b820191906000526020600020905b81548152906001019060200180831161084c57829003601f168201915b505050505081526020016002820154815260200160038201805461088c90611fe8565b80601f01602080910402602001604051908101604052809291908181526020018280546108b890611fe8565b80156109055780601f106108da57610100808354040283529160200191610905565b820191906000526020600020905b8154815290600101906020018083116108e857829003601f168201915b5050505050815260200160048201805461091e90611fe8565b80601f016020809104026020016040519081016040528092919081815260200182805461094a90611fe8565b80156109975780601f1061096c57610100808354040283529160200191610997565b820191906000526020600020905b81548152906001019060200180831161097a57829003601f168201915b50505050508152602001600582015481526020016006820160009054906101000a900473ffffffffffffffffffffffffffffffffffffffff1673ffffffffffffffffffffffffffffffffffffffff1673ffffffffffffffffffffffffffffffffffffffff1681525050905090565b6060600360003373ffffffffffffffffffffffffffffffffffffffff1673ffffffffffffffffffffffffffffffffffffffff1681526020019081526020016000208054610a5190611fe8565b80601f0160208091040260200160405190810160405280929190818152602001828054610a7d90611fe8565b8015610aca5780601f10610a9f57610100808354040283529160200191610aca565b820191906000526020600020905b815481529060010190602001808311610aad57829003601f168201915b5050505050905090565b60005481565b60045481565b60026020528160005260406000208181548110610afc57600080fd5b906000526020600020906007020160009150915050806000015490806001018054610b2690611fe8565b80601f0160208091040260200160405190810160405280929190818152602001828054610b5290611fe8565b8015610b9f5780601f10610b7457610100808354040283529160200191610b9f565b820191906000526020600020905b815481529060010190602001808311610b8257829003601f168201915b505050505090806002015490806003018054610bba90611fe8565b80601f0160208091040260200160405190810160405280929190818152602001828054610be690611fe8565b8015610c335780601f10610c0857610100808354040283529160200191610c33565b820191906000526020600020905b815481529060010190602001808311610c1657829003601f168201915b505050505090806004018054610c4890611fe8565b80601f0160208091040260200160405190810160405280929190818152602001828054610c7490611fe8565b8015610cc15780601f10610c9657610100808354040283529160200191610cc1565b820191906000526020600020905b815481529060010190602001808311610ca457829003601f168201915b5050505050908060050154908060060160009054906101000a900473ffffffffffffffffffffffffffffffffffffffff16905087565b6005602052806000526040600020600091509050806000015490806001015490806002018054610d2690611fe8565b80601f0160208091040260200160405190810160405280929190818152602001828054610d5290611fe8565b8015610d9f5780601f10610d7457610100808354040283529160200191610d9f565b820191906000526020600020905b815481529060010190602001808311610d8257829003601f168201915b505050505090806003018054610db490611fe8565b80601f0160208091040260200160405190810160405280929190818152602001828054610de090611fe8565b8015610e2d5780601f10610e0257610100808354040283529160200191610e2d565b820191906000526020600020905b815481529060010190602001808311610e1057829003601f168201915b5050505050905084565b6060600260003373ffffffffffffffffffffffffffffffffffffffff1673ffffffffffffffffffffffffffffffffffffffff168152602001908152602001600020805480602002602001604051908101604052809291908181526020016000905b828210156110f457838290600052602060002090600702016040518060e001604052908160008201548152602001600182018054610ed590611fe8565b80601f0160208091040260200160405190810160405280929190818152602001828054610f0190611fe8565b8015610f4e5780601f10610f2357610100808354040283529160200191610f4e565b820191906000526020600020905b815481529060010190602001808311610f3157829003601f168201915b5050505050815260200160028201548152602001600382018054610f7190611fe8565b80601f0160208091040260200160405190810160405280929190818152602001828054610f9d90611fe8565b8015610fea5780601f10610fbf57610100808354040283529160200191610fea565b820191906000526020600020905b815481529060010190602001808311610fcd57829003601f168201915b5050505050815260200160048201805461100390611fe8565b80601f016020809104026020016040519081016040528092919081815260200182805461102f90611fe8565b801561107c5780601f106110515761010080835404028352916020019161107c565b820191906000526020600020905b81548152906001019060200180831161105f57829003601f168201915b50505050508152602001600582015481526020016006820160009054906101000a900473ffffffffffffffffffffffffffffffffffffffff1673ffffffffffffffffffffffffffffffffffffffff1673ffffffffffffffffffffffffffffffffffffffff168152505081526020019060010190610e98565b50505050905090565b6000600360003373ffffffffffffffffffffffffffffffffffffffff1673ffffffffffffffffffffffffffffffffffffffff168152602001908152602001600020805461114990611fe8565b90501461115557600080fd5b80600360003373ffffffffffffffffffffffffffffffffffffffff1673ffffffffffffffffffffffffffffffffffffffff16815260200190815260200160002090805190602001906111a8929190611537565b5050565b600360205280600052604060002060009150905080546111cb90611fe8565b80601f01602080910402602001604051908101604052809291908181526020018280546111f790611fe8565b80156112445780601f1061121957610100808354040283529160200191611244565b820191906000526020600020905b81548152906001019060200180831161122757829003601f168201915b505050505081565b6000600454101561125c57600080fd5b600082511161126a57600080fd5b600081511161127857600080fd5b6004600081548092919061128b9061204b565b91905055506040518060800160405280600454815260200184815260200183815260200182815250600560003373ffffffffffffffffffffffffffffffffffffffff1673ffffffffffffffffffffffffffffffffffffffff16815260200190815260200160002060008201518160000155602082015181600101556040820151816002019080519060200190611322929190611537565b50606082015181600301908051906020019061133f929190611537565b509050507f736e9f6a8a9268d693adb56408f2dba4fc237b572243e23fb4c0408b4c9c7da460045484848460405161137a9493929190611deb565b60405180910390a1505050565b6000600260003373ffffffffffffffffffffffffffffffffffffffff1673ffffffffffffffffffffffffffffffffffffffff16815260200190815260200160002080549050905090565b600260008273ffffffffffffffffffffffffffffffffffffffff1673ffffffffffffffffffffffffffffffffffffffff168152602001908152602001600020829080600181540180825580915050600190039060005260206000209060070201600090919091909150600082015181600001556020820151816001019080519060200190611460929190611537565b50604082015181600201556060820151816003019080519060200190611487929190611537565b5060808201518160040190805190602001906114a4929190611537565b5060a0820151816005015560c08201518160060160006101000a81548173ffffffffffffffffffffffffffffffffffffffff021916908373ffffffffffffffffffffffffffffffffffffffff16021790555050507fc3fbfea1182e832f4606a9e4bd8e4c76681492cf2b269e9e3f97be409dbf5baf33828460405161152b93929190611ca8565b60405180910390a15050565b82805461154390611fe8565b90600052602060002090601f01602090048101928261156557600085556115ac565b82601f1061157e57805160ff19168380011785556115ac565b828001600101855582156115ac579182015b828111156115ab578251825591602001919060010190611590565b5b5090506115b99190611610565b5090565b6040518060e00160405280600081526020016060815260200160008152602001606081526020016060815260200160008152602001600073ffffffffffffffffffffffffffffffffffffffff1681525090565b5b80821115611629576000816000905550600101611611565b5090565b600061164061163b84611e7e565b611e59565b90508281526020810184848401111561165857600080fd5b611663848285611fa6565b509392505050565b60008135905061167a81612132565b92915050565b60008135905061168f81612149565b92915050565b600082601f8301126116a657600080fd5b81356116b684826020860161162d565b91505092915050565b600060e082840312156116d157600080fd5b6116db60e0611e59565b905060006116eb848285016117b7565b600083015250602082013567ffffffffffffffff81111561170b57600080fd5b61171784828501611695565b602083015250604061172b848285016117b7565b604083015250606082013567ffffffffffffffff81111561174b57600080fd5b61175784828501611695565b606083015250608082013567ffffffffffffffff81111561177757600080fd5b61178384828501611695565b60808301525060a0611797848285016117b7565b60a08301525060c06117ab84828501611680565b60c08301525092915050565b6000813590506117c681612160565b92915050565b6000602082840312156117de57600080fd5b60006117ec8482850161166b565b91505092915050565b6000806040838503121561180857600080fd5b60006118168582860161166b565b9250506020611827858286016117b7565b9150509250929050565b60006020828403121561184357600080fd5b600082013567ffffffffffffffff81111561185d57600080fd5b61186984828501611695565b91505092915050565b6000806000806080858703121561188857600080fd5b600085013567ffffffffffffffff8111156118a257600080fd5b6118ae87828801611695565b94505060206118bf878288016117b7565b935050604085013567ffffffffffffffff8111156118dc57600080fd5b6118e887828801611695565b925050606085013567ffffffffffffffff81111561190557600080fd5b61191187828801611695565b91505092959194509250565b6000806040838503121561193057600080fd5b600083013567ffffffffffffffff81111561194a57600080fd5b611956858286016116bf565b925050602061196785828601611680565b9150509250929050565b60008060006060848603121561198657600080fd5b6000611994868287016117b7565b935050602084013567ffffffffffffffff8111156119b157600080fd5b6119bd86828701611695565b925050604084013567ffffffffffffffff8111156119da57600080fd5b6119e686828701611695565b9150509250925092565b60006119fc8383611b27565b905092915050565b611a0d81611f70565b82525050565b611a1c81611f27565b82525050565b611a2b81611f27565b82525050565b611a3a81611f15565b82525050565b6000611a4b82611ebf565b611a558185611ee2565b935083602082028501611a6785611eaf565b8060005b85811015611aa35784840389528151611a8485826119f0565b9450611a8f83611ed5565b925060208a01995050600181019050611a6b565b50829750879550505050505092915050565b6000611ac082611eca565b611aca8185611ef3565b9350611ada818560208601611fb5565b611ae381612121565b840191505092915050565b6000611af982611eca565b611b038185611f04565b9350611b13818560208601611fb5565b611b1c81612121565b840191505092915050565b600060e083016000830151611b3f6000860182611c7b565b5060208301518482036020860152611b578282611ab5565b9150506040830151611b6c6040860182611c7b565b5060608301518482036060860152611b848282611ab5565b91505060808301518482036080860152611b9e8282611ab5565b91505060a0830151611bb360a0860182611c7b565b5060c0830151611bc660c0860182611a13565b508091505092915050565b600060e083016000830151611be96000860182611c7b565b5060208301518482036020860152611c018282611ab5565b9150506040830151611c166040860182611c7b565b5060608301518482036060860152611c2e8282611ab5565b91505060808301518482036080860152611c488282611ab5565b91505060a0830151611c5d60a0860182611c7b565b5060c0830151611c7060c0860182611a13565b508091505092915050565b611c8481611f59565b82525050565b611c9381611f59565b82525050565b611ca281611f63565b82525050565b6000606082019050611cbd6000830186611a31565b611cca6020830185611a04565b8181036040830152611cdc8184611bd1565b9050949350505050565b60006020820190508181036000830152611d008184611a40565b905092915050565b60006020820190508181036000830152611d228184611aee565b905092915050565b60006020820190508181036000830152611d448184611bd1565b905092915050565b6000602082019050611d616000830184611c8a565b92915050565b600060e082019050611d7c600083018a611c8a565b8181036020830152611d8e8189611aee565b9050611d9d6040830188611c8a565b8181036060830152611daf8187611aee565b90508181036080830152611dc38186611aee565b9050611dd260a0830185611c8a565b611ddf60c0830184611a22565b98975050505050505050565b6000608082019050611e006000830187611c8a565b611e0d6020830186611c8a565b8181036040830152611e1f8185611aee565b90508181036060830152611e338184611aee565b905095945050505050565b6000602082019050611e536000830184611c99565b92915050565b6000611e63611e74565b9050611e6f828261201a565b919050565b6000604051905090565b600067ffffffffffffffff821115611e9957611e986120f2565b5b611ea282612121565b9050602081019050919050565b6000819050602082019050919050565b600081519050919050565b600081519050919050565b6000602082019050919050565b600082825260208201905092915050565b600082825260208201905092915050565b600082825260208201905092915050565b6000611f2082611f39565b9050919050565b6000611f3282611f39565b9050919050565b600073ffffffffffffffffffffffffffffffffffffffff82169050919050565b6000819050919050565b600060ff82169050919050565b6000611f7b82611f82565b9050919050565b6000611f8d82611f94565b9050919050565b6000611f9f82611f39565b9050919050565b82818337600083830152505050565b60005b83811015611fd3578082015181840152602081019050611fb8565b83811115611fe2576000848401525b50505050565b6000600282049050600182168061200057607f821691505b60208210811415612014576120136120c3565b5b50919050565b61202382612121565b810181811067ffffffffffffffff82111715612042576120416120f2565b5b80604052505050565b600061205682611f59565b91507fffffffffffffffffffffffffffffffffffffffffffffffffffffffffffffffff82141561208957612088612094565b5b600182019050919050565b7f4e487b7100000000000000000000000000000000000000000000000000000000600052601160045260246000fd5b7f4e487b7100000000000000000000000000000000000000000000000000000000600052602260045260246000fd5b7f4e487b7100000000000000000000000000000000000000000000000000000000600052604160045260246000fd5b6000601f19601f8301169050919050565b61213b81611f15565b811461214657600080fd5b50565b61215281611f27565b811461215d57600080fd5b50565b61216981611f59565b811461217457600080fd5b5056fea26469706673582212200e5215475018366a32d284b21f4a7245f791f1fc4e0e87827022c31f5268c00064736f6c63430008040033",
  "linkReferences": {},
  "deployedLinkReferences": {}
}