{
  "contractName": "Doctor",
  "abi": [
    {
      "inputs": [],
      "stateMutability": "nonpayable",
      "type": "constructor"
    },
    {
      "anonymous": false,
      "inputs": [
        {
          "indexed": false,
          "internalType": "uint256",
          "name": "_docid",
          "type": "uint256"
        },
        {
          "indexed": false,
          "internalType": "uint256",
          "name": "_dob",
          "type": "uint256"
        },
        {
          "indexed": false,
          "internalType": "string",
          "name": "_firstName",
          "type": "string"
        },
        {
          "indexed": false,
          "internalType": "string",
          "name": "_lastName",
          "type": "string"
        }
      ],
      "name": "DocRegistered",
      "type": "event"
    },
    {
      "anonymous": false,
      "inputs": [
        {
          "indexed": false,
          "internalType": "address",
          "name": "sender",
          "type": "address"
        },
        {
          "indexed": false,
          "internalType": "address",
          "name": "receiver",
          "type": "address"
        },
        {
          "components": [
            {
              "internalType": "uint256",
              "name": "field",
              "type": "uint256"
            },
            {
              "internalType": "string",
              "name": "fileHash",
              "type": "string"
            },
            {
              "internalType": "uint256",
              "name": "fileSize",
              "type": "uint256"
            },
            {
              "internalType": "string",
              "name": "fileType",
              "type": "string"
            },
            {
              "internalType": "string",
              "name": "fileName",
              "type": "string"
            },
            {
              "internalType": "uint256",
              "name": "uploadTime",
              "type": "uint256"
            },
            {
              "internalType": "address payable",
              "name": "uploader",
              "type": "address"
            }
          ],
          "indexed": false,
          "internalType": "struct User.File",
          "name": "file",
          "type": "tuple"
        }
      ],
      "name": "FileShared",
      "type": "event"
    },
    {
      "anonymous": false,
      "inputs": [
        {
          "indexed": false,
          "internalType": "uint256",
          "name": "field",
          "type": "uint256"
        },
        {
          "indexed": false,
          "internalType": "string",
          "name": "fileHash",
          "type": "string"
        },
        {
          "indexed": false,
          "internalType": "uint256",
          "name": "fileSize",
          "type": "uint256"
        },
        {
          "indexed": false,
          "internalType": "string",
          "name": "fileType",
          "type": "string"
        },
        {
          "indexed": false,
          "internalType": "string",
          "name": "fileName",
          "type": "string"
        },
        {
          "indexed": false,
          "internalType": "uint256",
          "name": "uploadTime",
          "type": "uint256"
        },
        {
          "indexed": false,
          "internalType": "address payable",
          "name": "uploader",
          "type": "address"
        }
      ],
      "name": "FileUploaded",
      "type": "event"
    },
    {
      "inputs": [],
      "name": "docCount",
      "outputs": [
        {
          "internalType": "uint256",
          "name": "",
          "type": "uint256"
        }
      ],
      "stateMutability": "view",
      "type": "function"
    },
    {
      "inputs": [
        {
          "internalType": "address",
          "name": "",
          "type": "address"
        }
      ],
      "name": "docList",
      "outputs": [
        {
          "internalType": "uint256",
          "name": "id",
          "type": "uint256"
        },
        {
          "internalType": "uint256",
          "name": "dob",
          "type": "uint256"
        },
        {
          "internalType": "string",
          "name": "firstName",
          "type": "string"
        },
        {
          "internalType": "string",
          "name": "lastName",
          "type": "string"
        }
      ],
      "stateMutability": "view",
      "type": "function"
    },
    {
      "inputs": [],
      "name": "fileCount",
      "outputs": [
        {
          "internalType": "uint256",
          "name": "",
          "type": "uint256"
        }
      ],
      "stateMutability": "view",
      "type": "function"
    },
    {
      "inputs": [
        {
          "internalType": "address",
          "name": "",
          "type": "address"
        },
        {
          "internalType": "uint256",
          "name": "",
          "type": "uint256"
        }
      ],
      "name": "files",
      "outputs": [
        {
          "internalType": "uint256",
          "name": "field",
          "type": "uint256"
        },
        {
          "internalType": "string",
          "name": "fileHash",
          "type": "string"
        },
        {
          "internalType": "uint256",
          "name": "fileSize",
          "type": "uint256"
        },
        {
          "internalType": "string",
          "name": "fileType",
          "type": "string"
        },
        {
          "internalType": "string",
          "name": "fileName",
          "type": "string"
        },
        {
          "internalType": "uint256",
          "name": "uploadTime",
          "type": "uint256"
        },
        {
          "internalType": "address payable",
          "name": "uploader",
          "type": "address"
        }
      ],
      "stateMutability": "view",
      "type": "function"
    },
    {
      "inputs": [],
      "name": "getFiles",
      "outputs": [
        {
          "components": [
            {
              "internalType": "uint256",
              "name": "field",
              "type": "uint256"
            },
            {
              "internalType": "string",
              "name": "fileHash",
              "type": "string"
            },
            {
              "internalType": "uint256",
              "name": "fileSize",
              "type": "uint256"
            },
            {
              "internalType": "string",
              "name": "fileType",
              "type": "string"
            },
            {
              "internalType": "string",
              "name": "fileName",
              "type": "string"
            },
            {
              "internalType": "uint256",
              "name": "uploadTime",
              "type": "uint256"
            },
            {
              "internalType": "address payable",
              "name": "uploader",
              "type": "address"
            }
          ],
          "internalType": "struct User.File",
          "name": "",
          "type": "tuple"
        }
      ],
      "stateMutability": "view",
      "type": "function"
    },
    {
      "inputs": [],
      "name": "getSharedFiles",
      "outputs": [
        {
          "components": [
            {
              "internalType": "uint256",
              "name": "field",
              "type": "uint256"
            },
            {
              "internalType": "string",
              "name": "fileHash",
              "type": "string"
            },
            {
              "internalType": "uint256",
              "name": "fileSize",
              "type": "uint256"
            },
            {
              "internalType": "string",
              "name": "fileType",
              "type": "string"
            },
            {
              "internalType": "string",
              "name": "fileName",
              "type": "string"
            },
            {
              "internalType": "uint256",
              "name": "uploadTime",
              "type": "uint256"
            },
            {
              "internalType": "address payable",
              "name": "uploader",
              "type": "address"
            }
          ],
          "internalType": "struct User.File[]",
          "name": "",
          "type": "tuple[]"
        }
      ],
      "stateMutability": "view",
      "type": "function"
    },
    {
      "inputs": [],
      "name": "getSharedFilesCount",
      "outputs": [
        {
          "internalType": "uint8",
          "name": "",
          "type": "uint8"
        }
      ],
      "stateMutability": "view",
      "type": "function"
    },
    {
      "inputs": [],
      "name": "getUserType",
      "outputs": [
        {
          "internalType": "string",
          "name": "",
          "type": "string"
        }
      ],
      "stateMutability": "view",
      "type": "function"
    },
    {
      "inputs": [
        {
          "internalType": "string",
          "name": "_userType",
          "type": "string"
        }
      ],
      "name": "setUserType",
      "outputs": [],
      "stateMutability": "nonpayable",
      "type": "function"
    },
    {
      "inputs": [
        {
          "components": [
            {
              "internalType": "uint256",
              "name": "field",
              "type": "uint256"
            },
            {
              "internalType": "string",
              "name": "fileHash",
              "type": "string"
            },
            {
              "internalType": "uint256",
              "name": "fileSize",
              "type": "uint256"
            },
            {
              "internalType": "string",
              "name": "fileType",
              "type": "string"
            },
            {
              "internalType": "string",
              "name": "fileName",
              "type": "string"
            },
            {
              "internalType": "uint256",
              "name": "uploadTime",
              "type": "uint256"
            },
            {
              "internalType": "address payable",
              "name": "uploader",
              "type": "address"
            }
          ],
          "internalType": "struct User.File",
          "name": "_file",
          "type": "tuple"
        },
        {
          "internalType": "address payable",
          "name": "_receiver",
          "type": "address"
        }
      ],
      "name": "shareFile",
      "outputs": [],
      "stateMutability": "nonpayable",
      "type": "function"
    },
    {
      "inputs": [
        {
          "internalType": "address",
          "name": "",
          "type": "address"
        },
        {
          "internalType": "uint256",
          "name": "",
          "type": "uint256"
        }
      ],
      "name": "sharedFiles",
      "outputs": [
        {
          "internalType": "uint256",
          "name": "field",
          "type": "uint256"
        },
        {
          "internalType": "string",
          "name": "fileHash",
          "type": "string"
        },
        {
          "internalType": "uint256",
          "name": "fileSize",
          "type": "uint256"
        },
        {
          "internalType": "string",
          "name": "fileType",
          "type": "string"
        },
        {
          "internalType": "string",
          "name": "fileName",
          "type": "string"
        },
        {
          "internalType": "uint256",
          "name": "uploadTime",
          "type": "uint256"
        },
        {
          "internalType": "address payable",
          "name": "uploader",
          "type": "address"
        }
      ],
      "stateMutability": "view",
      "type": "function"
    },
    {
      "inputs": [
        {
          "internalType": "string",
          "name": "_fileHash",
          "type": "string"
        },
        {
          "internalType": "uint256",
          "name": "_fileSize",
          "type": "uint256"
        },
        {
          "internalType": "string",
          "name": "_fileType",
          "type": "string"
        },
        {
          "internalType": "string",
          "name": "_fileName",
          "type": "string"
        }
      ],
      "name": "uploadFile",
      "outputs": [],
      "stateMutability": "nonpayable",
      "type": "function"
    },
    {
      "inputs": [
        {
          "internalType": "address",
          "name": "",
          "type": "address"
        }
      ],
      "name": "userType",
      "outputs": [
        {
          "internalType": "string",
          "name": "",
          "type": "string"
        }
      ],
      "stateMutability": "view",
      "type": "function"
    },
    {
      "inputs": [
        {
          "internalType": "uint256",
          "name": "_dob",
          "type": "uint256"
        },
        {
          "internalType": "string",
          "name": "_firstName",
          "type": "string"
        },
        {
          "internalType": "string",
          "name": "_lastName",
          "type": "string"
        }
      ],
      "name": "registerDoc",
      "outputs": [],
      "stateMutability": "nonpayable",
      "type": "function"
    },
    {
      "inputs": [],
      "name": "getDoc",
      "outputs": [
        {
          "components": [
            {
              "internalType": "uint256",
              "name": "id",
              "type": "uint256"
            },
            {
              "internalType": "uint256",
              "name": "dob",
              "type": "uint256"
            },
            {
              "internalType": "string",
              "name": "firstName",
              "type": "string"
            },
            {
              "internalType": "string",
              "name": "lastName",
              "type": "string"
            }
          ],
          "internalType": "struct Doctor.doc",
          "name": "",
          "type": "tuple"
        }
      ],
      "stateMutability": "view",
      "type": "function"
    }
  ],
  "bytecode": "0x608060405260008055600060045534801561001957600080fd5b5061262c806100296000396000f3fe608060405234801561001057600080fd5b50600436106100f55760003560e01c80635b4c42e511610097578063c584586711610066578063c584586714610297578063e44451a7146102b5578063ea5530da146102d1578063edd490b4146102ef576100f5565b80635b4c42e5146101fa578063914e31441461022d578063b12c9d941461024b578063b83458b014610267576100f5565b806341990077116100d3578063419900771461016a57806343953519146101885780634c4dc6e0146101a657806356041432146101c4576100f5565b806320f21708146100fa5780632ba6978e146101165780632da96d731461014c575b600080fd5b610114600480360381019061010f9190611894565b61030b565b005b610130600480360381019061012b91906119ad565b610539565b6040516101439796959493929190611a9c565b60405180910390f35b610154610750565b6040516101619190611c32565b60405180910390f35b6101726109f2565b60405161017f9190611c54565b60405180910390f35b610190610ac1565b60405161019d9190611c76565b60405180910390f35b6101ae610ac7565b6040516101bb9190611c76565b60405180910390f35b6101de60048036038101906101d991906119ad565b610acd565b6040516101f19796959493929190611a9c565b60405180910390f35b610214600480360381019061020f9190611c91565b610ce4565b6040516102249493929190611cbe565b60405180910390f35b610235610e24565b6040516102429190611e7d565b60405180910390f35b61026560048036038101906102609190611e9f565b6110ea565b005b610281600480360381019061027c9190611c91565b611192565b60405161028e9190611c54565b60405180910390f35b61029f611232565b6040516102ac9190611f52565b60405180910390f35b6102cf60048036038101906102ca9190611f74565b6113c1565b005b6102d96114ee565b6040516102e6919061201b565b60405180910390f35b61030960048036038101906103049190612174565b611538565b005b600084511161031957600080fd5b600082511161032757600080fd5b600081511161033557600080fd5b600073ffffffffffffffffffffffffffffffffffffffff163373ffffffffffffffffffffffffffffffffffffffff160361036e57600080fd5b6000831161037b57600080fd5b60008081548092919061038d906121ff565b9190505550600160003373ffffffffffffffffffffffffffffffffffffffff1673ffffffffffffffffffffffffffffffffffffffff1681526020019081526020016000206040518060e0016040528060005481526020018681526020018581526020018481526020018381526020014281526020013373ffffffffffffffffffffffffffffffffffffffff1681525090806001815401808255809150506001900390600052602060002090600702016000909190919091506000820151816000015560208201518160010190816104649190612453565b506040820151816002015560608201518160030190816104849190612453565b50608082015181600401908161049a9190612453565b5060a0820151816005015560c08201518160060160006101000a81548173ffffffffffffffffffffffffffffffffffffffff021916908373ffffffffffffffffffffffffffffffffffffffff16021790555050507f8afab45e252455189e0428faed31ed4afc4c187924fd4f30fcf4fef26b54353660005485858585423360405161052b9796959493929190611a9c565b60405180910390a150505050565b6001602052816000526040600020818154811061055557600080fd5b90600052602060002090600702016000915091505080600001549080600101805461057f90612276565b80601f01602080910402602001604051908101604052809291908181526020018280546105ab90612276565b80156105f85780601f106105cd576101008083540402835291602001916105f8565b820191906000526020600020905b8154815290600101906020018083116105db57829003601f168201915b50505050509080600201549080600301805461061390612276565b80601f016020809104026020016040519081016040528092919081815260200182805461063f90612276565b801561068c5780601f106106615761010080835404028352916020019161068c565b820191906000526020600020905b81548152906001019060200180831161066f57829003601f168201915b5050505050908060040180546106a190612276565b80601f01602080910402602001604051908101604052809291908181526020018280546106cd90612276565b801561071a5780601f106106ef5761010080835404028352916020019161071a565b820191906000526020600020905b8154815290600101906020018083116106fd57829003601f168201915b5050505050908060050154908060060160009054906101000a900473ffffffffffffffffffffffffffffffffffffffff16905087565b610758611689565b600160003373ffffffffffffffffffffffffffffffffffffffff1673ffffffffffffffffffffffffffffffffffffffff1681526020019081526020016000206000815481106107aa576107a9612525565b5b90600052602060002090600702016040518060e0016040529081600082015481526020016001820180546107dd90612276565b80601f016020809104026020016040519081016040528092919081815260200182805461080990612276565b80156108565780601f1061082b57610100808354040283529160200191610856565b820191906000526020600020905b81548152906001019060200180831161083957829003601f168201915b505050505081526020016002820154815260200160038201805461087990612276565b80601f01602080910402602001604051908101604052809291908181526020018280546108a590612276565b80156108f25780601f106108c7576101008083540402835291602001916108f2565b820191906000526020600020905b8154815290600101906020018083116108d557829003601f168201915b5050505050815260200160048201805461090b90612276565b80601f016020809104026020016040519081016040528092919081815260200182805461093790612276565b80156109845780601f1061095957610100808354040283529160200191610984565b820191906000526020600020905b81548152906001019060200180831161096757829003601f168201915b50505050508152602001600582015481526020016006820160009054906101000a900473ffffffffffffffffffffffffffffffffffffffff1673ffffffffffffffffffffffffffffffffffffffff1673ffffffffffffffffffffffffffffffffffffffff1681525050905090565b6060600360003373ffffffffffffffffffffffffffffffffffffffff1673ffffffffffffffffffffffffffffffffffffffff1681526020019081526020016000208054610a3e90612276565b80601f0160208091040260200160405190810160405280929190818152602001828054610a6a90612276565b8015610ab75780601f10610a8c57610100808354040283529160200191610ab7565b820191906000526020600020905b815481529060010190602001808311610a9a57829003601f168201915b5050505050905090565b60005481565b60045481565b60026020528160005260406000208181548110610ae957600080fd5b906000526020600020906007020160009150915050806000015490806001018054610b1390612276565b80601f0160208091040260200160405190810160405280929190818152602001828054610b3f90612276565b8015610b8c5780601f10610b6157610100808354040283529160200191610b8c565b820191906000526020600020905b815481529060010190602001808311610b6f57829003601f168201915b505050505090806002015490806003018054610ba790612276565b80601f0160208091040260200160405190810160405280929190818152602001828054610bd390612276565b8015610c205780601f10610bf557610100808354040283529160200191610c20565b820191906000526020600020905b815481529060010190602001808311610c0357829003601f168201915b505050505090806004018054610c3590612276565b80601f0160208091040260200160405190810160405280929190818152602001828054610c6190612276565b8015610cae5780601f10610c8357610100808354040283529160200191610cae565b820191906000526020600020905b815481529060010190602001808311610c9157829003601f168201915b5050505050908060050154908060060160009054906101000a900473ffffffffffffffffffffffffffffffffffffffff16905087565b6005602052806000526040600020600091509050806000015490806001015490806002018054610d1390612276565b80601f0160208091040260200160405190810160405280929190818152602001828054610d3f90612276565b8015610d8c5780601f10610d6157610100808354040283529160200191610d8c565b820191906000526020600020905b815481529060010190602001808311610d6f57829003601f168201915b505050505090806003018054610da190612276565b80601f0160208091040260200160405190810160405280929190818152602001828054610dcd90612276565b8015610e1a5780601f10610def57610100808354040283529160200191610e1a565b820191906000526020600020905b815481529060010190602001808311610dfd57829003601f168201915b5050505050905084565b6060600260003373ffffffffffffffffffffffffffffffffffffffff1673ffffffffffffffffffffffffffffffffffffffff168152602001908152602001600020805480602002602001604051908101604052809291908181526020016000905b828210156110e157838290600052602060002090600702016040518060e001604052908160008201548152602001600182018054610ec290612276565b80601f0160208091040260200160405190810160405280929190818152602001828054610eee90612276565b8015610f3b5780601f10610f1057610100808354040283529160200191610f3b565b820191906000526020600020905b815481529060010190602001808311610f1e57829003601f168201915b5050505050815260200160028201548152602001600382018054610f5e90612276565b80601f0160208091040260200160405190810160405280929190818152602001828054610f8a90612276565b8015610fd75780601f10610fac57610100808354040283529160200191610fd7565b820191906000526020600020905b815481529060010190602001808311610fba57829003601f168201915b50505050508152602001600482018054610ff090612276565b80601f016020809104026020016040519081016040528092919081815260200182805461101c90612276565b80156110695780601f1061103e57610100808354040283529160200191611069565b820191906000526020600020905b81548152906001019060200180831161104c57829003601f168201915b50505050508152602001600582015481526020016006820160009054906101000a900473ffffffffffffffffffffffffffffffffffffffff1673ffffffffffffffffffffffffffffffffffffffff1673ffffffffffffffffffffffffffffffffffffffff168152505081526020019060010190610e85565b50505050905090565b6000600360003373ffffffffffffffffffffffffffffffffffffffff1673ffffffffffffffffffffffffffffffffffffffff168152602001908152602001600020805461113690612276565b90501461114257600080fd5b80600360003373ffffffffffffffffffffffffffffffffffffffff1673ffffffffffffffffffffffffffffffffffffffff168152602001908152602001600020908161118e9190612453565b5050565b600360205280600052604060002060009150905080546111b190612276565b80601f01602080910402602001604051908101604052809291908181526020018280546111dd90612276565b801561122a5780601f106111ff5761010080835404028352916020019161122a565b820191906000526020600020905b81548152906001019060200180831161120d57829003601f168201915b505050505081565b61123a6116dc565b600560003373ffffffffffffffffffffffffffffffffffffffff1673ffffffffffffffffffffffffffffffffffffffff16815260200190815260200160002060405180608001604052908160008201548152602001600182015481526020016002820180546112a890612276565b80601f01602080910402602001604051908101604052809291908181526020018280546112d490612276565b80156113215780601f106112f657610100808354040283529160200191611321565b820191906000526020600020905b81548152906001019060200180831161130457829003601f168201915b5050505050815260200160038201805461133a90612276565b80601f016020809104026020016040519081016040528092919081815260200182805461136690612276565b80156113b35780601f10611388576101008083540402835291602001916113b3565b820191906000526020600020905b81548152906001019060200180831161139657829003601f168201915b505050505081525050905090565b600060045410156113d157600080fd5b60008251116113df57600080fd5b60008151116113ed57600080fd5b60046000815480929190611400906121ff565b91905055506040518060800160405280600454815260200184815260200183815260200182815250600560003373ffffffffffffffffffffffffffffffffffffffff1673ffffffffffffffffffffffffffffffffffffffff168152602001908152602001600020600082015181600001556020820151816001015560408201518160020190816114909190612453565b5060608201518160030190816114a69190612453565b509050507f736e9f6a8a9268d693adb56408f2dba4fc237b572243e23fb4c0408b4c9c7da46004548484846040516114e19493929190611cbe565b60405180910390a1505050565b6000600260003373ffffffffffffffffffffffffffffffffffffffff1673ffffffffffffffffffffffffffffffffffffffff16815260200190815260200160002080549050905090565b600260008273ffffffffffffffffffffffffffffffffffffffff1673ffffffffffffffffffffffffffffffffffffffff1681526020019081526020016000208290806001815401808255809150506001900390600052602060002090600702016000909190919091506000820151816000015560208201518160010190816115c09190612453565b506040820151816002015560608201518160030190816115e09190612453565b5060808201518160040190816115f69190612453565b5060a0820151816005015560c08201518160060160006101000a81548173ffffffffffffffffffffffffffffffffffffffff021916908373ffffffffffffffffffffffffffffffffffffffff16021790555050507fc3fbfea1182e832f4606a9e4bd8e4c76681492cf2b269e9e3f97be409dbf5baf33828460405161167d939291906125b8565b60405180910390a15050565b6040518060e00160405280600081526020016060815260200160008152602001606081526020016060815260200160008152602001600073ffffffffffffffffffffffffffffffffffffffff1681525090565b6040518060800160405280600081526020016000815260200160608152602001606081525090565b6000604051905090565b600080fd5b600080fd5b600080fd5b600080fd5b6000601f19601f8301169050919050565b7f4e487b7100000000000000000000000000000000000000000000000000000000600052604160045260246000fd5b61176b82611722565b810181811067ffffffffffffffff8211171561178a57611789611733565b5b80604052505050565b600061179d611704565b90506117a98282611762565b919050565b600067ffffffffffffffff8211156117c9576117c8611733565b5b6117d282611722565b9050602081019050919050565b82818337600083830152505050565b60006118016117fc846117ae565b611793565b90508281526020810184848401111561181d5761181c61171d565b5b6118288482856117df565b509392505050565b600082601f83011261184557611844611718565b5b81356118558482602086016117ee565b91505092915050565b6000819050919050565b6118718161185e565b811461187c57600080fd5b50565b60008135905061188e81611868565b92915050565b600080600080608085870312156118ae576118ad61170e565b5b600085013567ffffffffffffffff8111156118cc576118cb611713565b5b6118d887828801611830565b94505060206118e98782880161187f565b935050604085013567ffffffffffffffff81111561190a57611909611713565b5b61191687828801611830565b925050606085013567ffffffffffffffff81111561193757611936611713565b5b61194387828801611830565b91505092959194509250565b600073ffffffffffffffffffffffffffffffffffffffff82169050919050565b600061197a8261194f565b9050919050565b61198a8161196f565b811461199557600080fd5b50565b6000813590506119a781611981565b92915050565b600080604083850312156119c4576119c361170e565b5b60006119d285828601611998565b92505060206119e38582860161187f565b9150509250929050565b6119f68161185e565b82525050565b600081519050919050565b600082825260208201905092915050565b60005b83811015611a36578082015181840152602081019050611a1b565b60008484015250505050565b6000611a4d826119fc565b611a578185611a07565b9350611a67818560208601611a18565b611a7081611722565b840191505092915050565b6000611a868261194f565b9050919050565b611a9681611a7b565b82525050565b600060e082019050611ab1600083018a6119ed565b8181036020830152611ac38189611a42565b9050611ad260408301886119ed565b8181036060830152611ae48187611a42565b90508181036080830152611af88186611a42565b9050611b0760a08301856119ed565b611b1460c0830184611a8d565b98975050505050505050565b611b298161185e565b82525050565b600082825260208201905092915050565b6000611b4b826119fc565b611b558185611b2f565b9350611b65818560208601611a18565b611b6e81611722565b840191505092915050565b611b8281611a7b565b82525050565b600060e083016000830151611ba06000860182611b20565b5060208301518482036020860152611bb88282611b40565b9150506040830151611bcd6040860182611b20565b5060608301518482036060860152611be58282611b40565b91505060808301518482036080860152611bff8282611b40565b91505060a0830151611c1460a0860182611b20565b5060c0830151611c2760c0860182611b79565b508091505092915050565b60006020820190508181036000830152611c4c8184611b88565b905092915050565b60006020820190508181036000830152611c6e8184611a42565b905092915050565b6000602082019050611c8b60008301846119ed565b92915050565b600060208284031215611ca757611ca661170e565b5b6000611cb584828501611998565b91505092915050565b6000608082019050611cd360008301876119ed565b611ce060208301866119ed565b8181036040830152611cf28185611a42565b90508181036060830152611d068184611a42565b905095945050505050565b600081519050919050565b600082825260208201905092915050565b6000819050602082019050919050565b600060e083016000830151611d556000860182611b20565b5060208301518482036020860152611d6d8282611b40565b9150506040830151611d826040860182611b20565b5060608301518482036060860152611d9a8282611b40565b91505060808301518482036080860152611db48282611b40565b91505060a0830151611dc960a0860182611b20565b5060c0830151611ddc60c0860182611b79565b508091505092915050565b6000611df38383611d3d565b905092915050565b6000602082019050919050565b6000611e1382611d11565b611e1d8185611d1c565b935083602082028501611e2f85611d2d565b8060005b85811015611e6b5784840389528151611e4c8582611de7565b9450611e5783611dfb565b925060208a01995050600181019050611e33565b50829750879550505050505092915050565b60006020820190508181036000830152611e978184611e08565b905092915050565b600060208284031215611eb557611eb461170e565b5b600082013567ffffffffffffffff811115611ed357611ed2611713565b5b611edf84828501611830565b91505092915050565b6000608083016000830151611f006000860182611b20565b506020830151611f136020860182611b20565b5060408301518482036040860152611f2b8282611b40565b91505060608301518482036060860152611f458282611b40565b9150508091505092915050565b60006020820190508181036000830152611f6c8184611ee8565b905092915050565b600080600060608486031215611f8d57611f8c61170e565b5b6000611f9b8682870161187f565b935050602084013567ffffffffffffffff811115611fbc57611fbb611713565b5b611fc886828701611830565b925050604084013567ffffffffffffffff811115611fe957611fe8611713565b5b611ff586828701611830565b9150509250925092565b600060ff82169050919050565b61201581611fff565b82525050565b6000602082019050612030600083018461200c565b92915050565b600080fd5b600080fd5b61204981611a7b565b811461205457600080fd5b50565b60008135905061206681612040565b92915050565b600060e0828403121561208257612081612036565b5b61208c60e0611793565b9050600061209c8482850161187f565b600083015250602082013567ffffffffffffffff8111156120c0576120bf61203b565b5b6120cc84828501611830565b60208301525060406120e08482850161187f565b604083015250606082013567ffffffffffffffff8111156121045761210361203b565b5b61211084828501611830565b606083015250608082013567ffffffffffffffff8111156121345761213361203b565b5b61214084828501611830565b60808301525060a06121548482850161187f565b60a08301525060c061216884828501612057565b60c08301525092915050565b6000806040838503121561218b5761218a61170e565b5b600083013567ffffffffffffffff8111156121a9576121a8611713565b5b6121b58582860161206c565b92505060206121c685828601612057565b9150509250929050565b7f4e487b7100000000000000000000000000000000000000000000000000000000600052601160045260246000fd5b600061220a8261185e565b91507fffffffffffffffffffffffffffffffffffffffffffffffffffffffffffffffff820361223c5761223b6121d0565b5b600182019050919050565b7f4e487b7100000000000000000000000000000000000000000000000000000000600052602260045260246000fd5b6000600282049050600182168061228e57607f821691505b6020821081036122a1576122a0612247565b5b50919050565b60008190508160005260206000209050919050565b60006020601f8301049050919050565b600082821b905092915050565b6000600883026123097fffffffffffffffffffffffffffffffffffffffffffffffffffffffffffffffff826122cc565b61231386836122cc565b95508019841693508086168417925050509392505050565b6000819050919050565b600061235061234b6123468461185e565b61232b565b61185e565b9050919050565b6000819050919050565b61236a83612335565b61237e61237682612357565b8484546122d9565b825550505050565b600090565b612393612386565b61239e818484612361565b505050565b5b818110156123c2576123b760008261238b565b6001810190506123a4565b5050565b601f821115612407576123d8816122a7565b6123e1846122bc565b810160208510156123f0578190505b6124046123fc856122bc565b8301826123a3565b50505b505050565b600082821c905092915050565b600061242a6000198460080261240c565b1980831691505092915050565b60006124438383612419565b9150826002028217905092915050565b61245c826119fc565b67ffffffffffffffff81111561247557612474611733565b5b61247f8254612276565b61248a8282856123c6565b600060209050601f8311600181146124bd57600084156124ab578287015190505b6124b58582612437565b86555061251d565b601f1984166124cb866122a7565b60005b828110156124f3578489015182556001820191506020850194506020810190506124ce565b86831015612510578489015161250c601f891682612419565b8355505b6001600288020188555050505b505050505050565b7f4e487b7100000000000000000000000000000000000000000000000000000000600052603260045260246000fd5b61255d8161196f565b82525050565b600061257e6125796125748461194f565b61232b565b61194f565b9050919050565b600061259082612563565b9050919050565b60006125a282612585565b9050919050565b6125b281612597565b82525050565b60006060820190506125cd6000830186612554565b6125da60208301856125a9565b81810360408301526125ec8184611b88565b905094935050505056fea2646970667358221220fb0a7a02323aff1f2c025369d92b67b52213ab959eb2038152c23f49bb92398f64736f6c63430008110033",
  "immutableReferences": {},
  "source": "// SPDX-License-Identifier: GPL-3.0\r\npragma solidity ^0.8.4;\r\nimport \"./User.sol\";\r\n\r\ncontract Doctor is User {\r\n    uint public docCount = 0;\r\n    struct doc {\r\n        uint256 id;\r\n        uint256 dob;\r\n        string firstName;\r\n        string lastName;\r\n    }\r\n    mapping(address => doc) public docList;\r\n\r\n    constructor() {}\r\n\r\n    event DocRegistered(\r\n        uint256 _docid,\r\n        uint256 _dob,\r\n        string _firstName,\r\n        string _lastName\r\n    );\r\n\r\n    function registerDoc(\r\n        uint _dob,\r\n        string memory _firstName,\r\n        string memory _lastName\r\n    ) public {\r\n        require((docCount >= 0)); // Make sure the file hash exists\r\n\r\n        require((bytes(_firstName).length > 0)); // Make sure file type exists\r\n\r\n        require((bytes(_lastName).length > 0));\r\n\r\n        docCount++;\r\n\r\n        docList[msg.sender] = doc(docCount, _dob, _firstName, _lastName);\r\n\r\n        emit DocRegistered(docCount, _dob, _firstName, _lastName);\r\n    }\r\n\r\n    function getDoc() public view returns (doc memory) {\r\n        return docList[msg.sender];\r\n    }\r\n}\r\n",
  "sourcePath": "C:\\Users\\Varun Koranne\\Desktop\\WebDev\\SE\\MedChain\\truffleServer\\contracts\\Doctor.sol",
  "compiler": {
    "name": "solc",
    "version": "0.8.17+commit.8df45f5f.Emscripten.clang"
  },
  "schemaVersion": "3.4.4",
  "updatedAt": "2022-11-06T12:34:35.219Z",
  "devdoc": {
    "kind": "dev",
    "methods": {},
    "version": 1
  },
  "userdoc": {
    "kind": "user",
    "methods": {},
    "version": 1
  }
}