{
  "contractName": "User",
  "abi": [
    {
      "inputs": [],
      "stateMutability": "nonpayable",
      "type": "constructor"
    },
    {
      "anonymous": false,
      "inputs": [
        {
          "indexed": false,
          "internalType": "address",
          "name": "sender",
          "type": "address"
        },
        {
          "indexed": false,
          "internalType": "address",
          "name": "receiver",
          "type": "address"
        },
        {
          "components": [
            {
              "internalType": "uint256",
              "name": "field",
              "type": "uint256"
            },
            {
              "internalType": "string",
              "name": "fileHash",
              "type": "string"
            },
            {
              "internalType": "uint256",
              "name": "fileSize",
              "type": "uint256"
            },
            {
              "internalType": "string",
              "name": "fileType",
              "type": "string"
            },
            {
              "internalType": "string",
              "name": "fileName",
              "type": "string"
            },
            {
              "internalType": "uint256",
              "name": "uploadTime",
              "type": "uint256"
            },
            {
              "internalType": "address payable",
              "name": "uploader",
              "type": "address"
            }
          ],
          "indexed": false,
          "internalType": "struct User.File",
          "name": "file",
          "type": "tuple"
        }
      ],
      "name": "FileShared",
      "type": "event"
    },
    {
      "anonymous": false,
      "inputs": [
        {
          "indexed": false,
          "internalType": "uint256",
          "name": "field",
          "type": "uint256"
        },
        {
          "indexed": false,
          "internalType": "string",
          "name": "fileHash",
          "type": "string"
        },
        {
          "indexed": false,
          "internalType": "uint256",
          "name": "fileSize",
          "type": "uint256"
        },
        {
          "indexed": false,
          "internalType": "string",
          "name": "fileType",
          "type": "string"
        },
        {
          "indexed": false,
          "internalType": "string",
          "name": "fileName",
          "type": "string"
        },
        {
          "indexed": false,
          "internalType": "uint256",
          "name": "uploadTime",
          "type": "uint256"
        },
        {
          "indexed": false,
          "internalType": "address payable",
          "name": "uploader",
          "type": "address"
        }
      ],
      "name": "FileUploaded",
      "type": "event"
    },
    {
      "inputs": [],
      "name": "fileCount",
      "outputs": [
        {
          "internalType": "uint256",
          "name": "",
          "type": "uint256"
        }
      ],
      "stateMutability": "view",
      "type": "function"
    },
    {
      "inputs": [
        {
          "internalType": "address",
          "name": "",
          "type": "address"
        },
        {
          "internalType": "uint256",
          "name": "",
          "type": "uint256"
        }
      ],
      "name": "files",
      "outputs": [
        {
          "internalType": "uint256",
          "name": "field",
          "type": "uint256"
        },
        {
          "internalType": "string",
          "name": "fileHash",
          "type": "string"
        },
        {
          "internalType": "uint256",
          "name": "fileSize",
          "type": "uint256"
        },
        {
          "internalType": "string",
          "name": "fileType",
          "type": "string"
        },
        {
          "internalType": "string",
          "name": "fileName",
          "type": "string"
        },
        {
          "internalType": "uint256",
          "name": "uploadTime",
          "type": "uint256"
        },
        {
          "internalType": "address payable",
          "name": "uploader",
          "type": "address"
        }
      ],
      "stateMutability": "view",
      "type": "function"
    },
    {
      "inputs": [
        {
          "internalType": "address",
          "name": "",
          "type": "address"
        },
        {
          "internalType": "uint256",
          "name": "",
          "type": "uint256"
        }
      ],
      "name": "sharedFiles",
      "outputs": [
        {
          "internalType": "uint256",
          "name": "field",
          "type": "uint256"
        },
        {
          "internalType": "string",
          "name": "fileHash",
          "type": "string"
        },
        {
          "internalType": "uint256",
          "name": "fileSize",
          "type": "uint256"
        },
        {
          "internalType": "string",
          "name": "fileType",
          "type": "string"
        },
        {
          "internalType": "string",
          "name": "fileName",
          "type": "string"
        },
        {
          "internalType": "uint256",
          "name": "uploadTime",
          "type": "uint256"
        },
        {
          "internalType": "address payable",
          "name": "uploader",
          "type": "address"
        }
      ],
      "stateMutability": "view",
      "type": "function"
    },
    {
      "inputs": [
        {
          "internalType": "address",
          "name": "",
          "type": "address"
        }
      ],
      "name": "userType",
      "outputs": [
        {
          "internalType": "string",
          "name": "",
          "type": "string"
        }
      ],
      "stateMutability": "view",
      "type": "function"
    },
    {
      "inputs": [
        {
          "internalType": "string",
          "name": "_fileHash",
          "type": "string"
        },
        {
          "internalType": "uint256",
          "name": "_fileSize",
          "type": "uint256"
        },
        {
          "internalType": "string",
          "name": "_fileType",
          "type": "string"
        },
        {
          "internalType": "string",
          "name": "_fileName",
          "type": "string"
        }
      ],
      "name": "uploadFile",
      "outputs": [],
      "stateMutability": "nonpayable",
      "type": "function"
    },
    {
      "inputs": [],
      "name": "getFiles",
      "outputs": [
        {
          "components": [
            {
              "internalType": "uint256",
              "name": "field",
              "type": "uint256"
            },
            {
              "internalType": "string",
              "name": "fileHash",
              "type": "string"
            },
            {
              "internalType": "uint256",
              "name": "fileSize",
              "type": "uint256"
            },
            {
              "internalType": "string",
              "name": "fileType",
              "type": "string"
            },
            {
              "internalType": "string",
              "name": "fileName",
              "type": "string"
            },
            {
              "internalType": "uint256",
              "name": "uploadTime",
              "type": "uint256"
            },
            {
              "internalType": "address payable",
              "name": "uploader",
              "type": "address"
            }
          ],
          "internalType": "struct User.File",
          "name": "",
          "type": "tuple"
        }
      ],
      "stateMutability": "view",
      "type": "function"
    },
    {
      "inputs": [
        {
          "internalType": "string",
          "name": "_userType",
          "type": "string"
        }
      ],
      "name": "setUserType",
      "outputs": [],
      "stateMutability": "nonpayable",
      "type": "function"
    },
    {
      "inputs": [],
      "name": "getUserType",
      "outputs": [
        {
          "internalType": "string",
          "name": "",
          "type": "string"
        }
      ],
      "stateMutability": "view",
      "type": "function"
    },
    {
      "inputs": [],
      "name": "getSharedFilesCount",
      "outputs": [
        {
          "internalType": "uint8",
          "name": "",
          "type": "uint8"
        }
      ],
      "stateMutability": "view",
      "type": "function"
    },
    {
      "inputs": [],
      "name": "getSharedFiles",
      "outputs": [
        {
          "components": [
            {
              "internalType": "uint256",
              "name": "field",
              "type": "uint256"
            },
            {
              "internalType": "string",
              "name": "fileHash",
              "type": "string"
            },
            {
              "internalType": "uint256",
              "name": "fileSize",
              "type": "uint256"
            },
            {
              "internalType": "string",
              "name": "fileType",
              "type": "string"
            },
            {
              "internalType": "string",
              "name": "fileName",
              "type": "string"
            },
            {
              "internalType": "uint256",
              "name": "uploadTime",
              "type": "uint256"
            },
            {
              "internalType": "address payable",
              "name": "uploader",
              "type": "address"
            }
          ],
          "internalType": "struct User.File[]",
          "name": "",
          "type": "tuple[]"
        }
      ],
      "stateMutability": "view",
      "type": "function"
    },
    {
      "inputs": [
        {
          "components": [
            {
              "internalType": "uint256",
              "name": "field",
              "type": "uint256"
            },
            {
              "internalType": "string",
              "name": "fileHash",
              "type": "string"
            },
            {
              "internalType": "uint256",
              "name": "fileSize",
              "type": "uint256"
            },
            {
              "internalType": "string",
              "name": "fileType",
              "type": "string"
            },
            {
              "internalType": "string",
              "name": "fileName",
              "type": "string"
            },
            {
              "internalType": "uint256",
              "name": "uploadTime",
              "type": "uint256"
            },
            {
              "internalType": "address payable",
              "name": "uploader",
              "type": "address"
            }
          ],
          "internalType": "struct User.File",
          "name": "_file",
          "type": "tuple"
        },
        {
          "internalType": "address payable",
          "name": "_receiver",
          "type": "address"
        }
      ],
      "name": "shareFile",
      "outputs": [],
      "stateMutability": "nonpayable",
      "type": "function"
    }
  ],
  "bytecode": "0x60806040526000805534801561001457600080fd5b50611fc1806100246000396000f3fe608060405234801561001057600080fd5b50600436106100a95760003560e01c80635604143211610071578063560414321461015a578063914e314414610190578063b12c9d94146101ae578063b83458b0146101ca578063ea5530da146101fa578063edd490b414610218576100a9565b806320f21708146100ae5780632ba6978e146100ca5780632da96d7314610100578063419900771461011e578063439535191461013c575b600080fd5b6100c860048036038101906100c39190611393565b610234565b005b6100e460048036038101906100df91906114ac565b610462565b6040516100f7979695949392919061159b565b60405180910390f35b610108610679565b6040516101159190611731565b60405180910390f35b61012661091b565b6040516101339190611753565b60405180910390f35b6101446109ea565b6040516101519190611775565b60405180910390f35b610174600480360381019061016f91906114ac565b6109f0565b604051610187979695949392919061159b565b60405180910390f35b610198610c07565b6040516101a591906118fc565b60405180910390f35b6101c860048036038101906101c3919061191e565b610ecd565b005b6101e460048036038101906101df9190611967565b610f75565b6040516101f19190611753565b60405180910390f35b610202611015565b60405161020f91906119b0565b60405180910390f35b610232600480360381019061022d9190611b09565b61105f565b005b600084511161024257600080fd5b600082511161025057600080fd5b600081511161025e57600080fd5b600073ffffffffffffffffffffffffffffffffffffffff163373ffffffffffffffffffffffffffffffffffffffff160361029757600080fd5b600083116102a457600080fd5b6000808154809291906102b690611b94565b9190505550600160003373ffffffffffffffffffffffffffffffffffffffff1673ffffffffffffffffffffffffffffffffffffffff1681526020019081526020016000206040518060e0016040528060005481526020018681526020018581526020018481526020018381526020014281526020013373ffffffffffffffffffffffffffffffffffffffff16815250908060018154018082558091505060019003906000526020600020906007020160009091909190915060008201518160000155602082015181600101908161038d9190611de8565b506040820151816002015560608201518160030190816103ad9190611de8565b5060808201518160040190816103c39190611de8565b5060a0820151816005015560c08201518160060160006101000a81548173ffffffffffffffffffffffffffffffffffffffff021916908373ffffffffffffffffffffffffffffffffffffffff16021790555050507f8afab45e252455189e0428faed31ed4afc4c187924fd4f30fcf4fef26b543536600054858585854233604051610454979695949392919061159b565b60405180910390a150505050565b6001602052816000526040600020818154811061047e57600080fd5b9060005260206000209060070201600091509150508060000154908060010180546104a890611c0b565b80601f01602080910402602001604051908101604052809291908181526020018280546104d490611c0b565b80156105215780601f106104f657610100808354040283529160200191610521565b820191906000526020600020905b81548152906001019060200180831161050457829003601f168201915b50505050509080600201549080600301805461053c90611c0b565b80601f016020809104026020016040519081016040528092919081815260200182805461056890611c0b565b80156105b55780601f1061058a576101008083540402835291602001916105b5565b820191906000526020600020905b81548152906001019060200180831161059857829003601f168201915b5050505050908060040180546105ca90611c0b565b80601f01602080910402602001604051908101604052809291908181526020018280546105f690611c0b565b80156106435780601f1061061857610100808354040283529160200191610643565b820191906000526020600020905b81548152906001019060200180831161062657829003601f168201915b5050505050908060050154908060060160009054906101000a900473ffffffffffffffffffffffffffffffffffffffff16905087565b6106816111b0565b600160003373ffffffffffffffffffffffffffffffffffffffff1673ffffffffffffffffffffffffffffffffffffffff1681526020019081526020016000206000815481106106d3576106d2611eba565b5b90600052602060002090600702016040518060e00160405290816000820154815260200160018201805461070690611c0b565b80601f016020809104026020016040519081016040528092919081815260200182805461073290611c0b565b801561077f5780601f106107545761010080835404028352916020019161077f565b820191906000526020600020905b81548152906001019060200180831161076257829003601f168201915b50505050508152602001600282015481526020016003820180546107a290611c0b565b80601f01602080910402602001604051908101604052809291908181526020018280546107ce90611c0b565b801561081b5780601f106107f05761010080835404028352916020019161081b565b820191906000526020600020905b8154815290600101906020018083116107fe57829003601f168201915b5050505050815260200160048201805461083490611c0b565b80601f016020809104026020016040519081016040528092919081815260200182805461086090611c0b565b80156108ad5780601f10610882576101008083540402835291602001916108ad565b820191906000526020600020905b81548152906001019060200180831161089057829003601f168201915b50505050508152602001600582015481526020016006820160009054906101000a900473ffffffffffffffffffffffffffffffffffffffff1673ffffffffffffffffffffffffffffffffffffffff1673ffffffffffffffffffffffffffffffffffffffff1681525050905090565b6060600360003373ffffffffffffffffffffffffffffffffffffffff1673ffffffffffffffffffffffffffffffffffffffff168152602001908152602001600020805461096790611c0b565b80601f016020809104026020016040519081016040528092919081815260200182805461099390611c0b565b80156109e05780601f106109b5576101008083540402835291602001916109e0565b820191906000526020600020905b8154815290600101906020018083116109c357829003601f168201915b5050505050905090565b60005481565b60026020528160005260406000208181548110610a0c57600080fd5b906000526020600020906007020160009150915050806000015490806001018054610a3690611c0b565b80601f0160208091040260200160405190810160405280929190818152602001828054610a6290611c0b565b8015610aaf5780601f10610a8457610100808354040283529160200191610aaf565b820191906000526020600020905b815481529060010190602001808311610a9257829003601f168201915b505050505090806002015490806003018054610aca90611c0b565b80601f0160208091040260200160405190810160405280929190818152602001828054610af690611c0b565b8015610b435780601f10610b1857610100808354040283529160200191610b43565b820191906000526020600020905b815481529060010190602001808311610b2657829003601f168201915b505050505090806004018054610b5890611c0b565b80601f0160208091040260200160405190810160405280929190818152602001828054610b8490611c0b565b8015610bd15780601f10610ba657610100808354040283529160200191610bd1565b820191906000526020600020905b815481529060010190602001808311610bb457829003601f168201915b5050505050908060050154908060060160009054906101000a900473ffffffffffffffffffffffffffffffffffffffff16905087565b6060600260003373ffffffffffffffffffffffffffffffffffffffff1673ffffffffffffffffffffffffffffffffffffffff168152602001908152602001600020805480602002602001604051908101604052809291908181526020016000905b82821015610ec457838290600052602060002090600702016040518060e001604052908160008201548152602001600182018054610ca590611c0b565b80601f0160208091040260200160405190810160405280929190818152602001828054610cd190611c0b565b8015610d1e5780601f10610cf357610100808354040283529160200191610d1e565b820191906000526020600020905b815481529060010190602001808311610d0157829003601f168201915b5050505050815260200160028201548152602001600382018054610d4190611c0b565b80601f0160208091040260200160405190810160405280929190818152602001828054610d6d90611c0b565b8015610dba5780601f10610d8f57610100808354040283529160200191610dba565b820191906000526020600020905b815481529060010190602001808311610d9d57829003601f168201915b50505050508152602001600482018054610dd390611c0b565b80601f0160208091040260200160405190810160405280929190818152602001828054610dff90611c0b565b8015610e4c5780601f10610e2157610100808354040283529160200191610e4c565b820191906000526020600020905b815481529060010190602001808311610e2f57829003601f168201915b50505050508152602001600582015481526020016006820160009054906101000a900473ffffffffffffffffffffffffffffffffffffffff1673ffffffffffffffffffffffffffffffffffffffff1673ffffffffffffffffffffffffffffffffffffffff168152505081526020019060010190610c68565b50505050905090565b6000600360003373ffffffffffffffffffffffffffffffffffffffff1673ffffffffffffffffffffffffffffffffffffffff1681526020019081526020016000208054610f1990611c0b565b905014610f2557600080fd5b80600360003373ffffffffffffffffffffffffffffffffffffffff1673ffffffffffffffffffffffffffffffffffffffff1681526020019081526020016000209081610f719190611de8565b5050565b60036020528060005260406000206000915090508054610f9490611c0b565b80601f0160208091040260200160405190810160405280929190818152602001828054610fc090611c0b565b801561100d5780601f10610fe25761010080835404028352916020019161100d565b820191906000526020600020905b815481529060010190602001808311610ff057829003601f168201915b505050505081565b6000600260003373ffffffffffffffffffffffffffffffffffffffff1673ffffffffffffffffffffffffffffffffffffffff16815260200190815260200160002080549050905090565b600260008273ffffffffffffffffffffffffffffffffffffffff1673ffffffffffffffffffffffffffffffffffffffff1681526020019081526020016000208290806001815401808255809150506001900390600052602060002090600702016000909190919091506000820151816000015560208201518160010190816110e79190611de8565b506040820151816002015560608201518160030190816111079190611de8565b50608082015181600401908161111d9190611de8565b5060a0820151816005015560c08201518160060160006101000a81548173ffffffffffffffffffffffffffffffffffffffff021916908373ffffffffffffffffffffffffffffffffffffffff16021790555050507fc3fbfea1182e832f4606a9e4bd8e4c76681492cf2b269e9e3f97be409dbf5baf3382846040516111a493929190611f4d565b60405180910390a15050565b6040518060e00160405280600081526020016060815260200160008152602001606081526020016060815260200160008152602001600073ffffffffffffffffffffffffffffffffffffffff1681525090565b6000604051905090565b600080fd5b600080fd5b600080fd5b600080fd5b6000601f19601f8301169050919050565b7f4e487b7100000000000000000000000000000000000000000000000000000000600052604160045260246000fd5b61126a82611221565b810181811067ffffffffffffffff8211171561128957611288611232565b5b80604052505050565b600061129c611203565b90506112a88282611261565b919050565b600067ffffffffffffffff8211156112c8576112c7611232565b5b6112d182611221565b9050602081019050919050565b82818337600083830152505050565b60006113006112fb846112ad565b611292565b90508281526020810184848401111561131c5761131b61121c565b5b6113278482856112de565b509392505050565b600082601f83011261134457611343611217565b5b81356113548482602086016112ed565b91505092915050565b6000819050919050565b6113708161135d565b811461137b57600080fd5b50565b60008135905061138d81611367565b92915050565b600080600080608085870312156113ad576113ac61120d565b5b600085013567ffffffffffffffff8111156113cb576113ca611212565b5b6113d78782880161132f565b94505060206113e88782880161137e565b935050604085013567ffffffffffffffff81111561140957611408611212565b5b6114158782880161132f565b925050606085013567ffffffffffffffff81111561143657611435611212565b5b6114428782880161132f565b91505092959194509250565b600073ffffffffffffffffffffffffffffffffffffffff82169050919050565b60006114798261144e565b9050919050565b6114898161146e565b811461149457600080fd5b50565b6000813590506114a681611480565b92915050565b600080604083850312156114c3576114c261120d565b5b60006114d185828601611497565b92505060206114e28582860161137e565b9150509250929050565b6114f58161135d565b82525050565b600081519050919050565b600082825260208201905092915050565b60005b8381101561153557808201518184015260208101905061151a565b60008484015250505050565b600061154c826114fb565b6115568185611506565b9350611566818560208601611517565b61156f81611221565b840191505092915050565b60006115858261144e565b9050919050565b6115958161157a565b82525050565b600060e0820190506115b0600083018a6114ec565b81810360208301526115c28189611541565b90506115d160408301886114ec565b81810360608301526115e38187611541565b905081810360808301526115f78186611541565b905061160660a08301856114ec565b61161360c083018461158c565b98975050505050505050565b6116288161135d565b82525050565b600082825260208201905092915050565b600061164a826114fb565b611654818561162e565b9350611664818560208601611517565b61166d81611221565b840191505092915050565b6116818161157a565b82525050565b600060e08301600083015161169f600086018261161f565b50602083015184820360208601526116b7828261163f565b91505060408301516116cc604086018261161f565b50606083015184820360608601526116e4828261163f565b915050608083015184820360808601526116fe828261163f565b91505060a083015161171360a086018261161f565b5060c083015161172660c0860182611678565b508091505092915050565b6000602082019050818103600083015261174b8184611687565b905092915050565b6000602082019050818103600083015261176d8184611541565b905092915050565b600060208201905061178a60008301846114ec565b92915050565b600081519050919050565b600082825260208201905092915050565b6000819050602082019050919050565b600060e0830160008301516117d4600086018261161f565b50602083015184820360208601526117ec828261163f565b9150506040830151611801604086018261161f565b5060608301518482036060860152611819828261163f565b91505060808301518482036080860152611833828261163f565b91505060a083015161184860a086018261161f565b5060c083015161185b60c0860182611678565b508091505092915050565b600061187283836117bc565b905092915050565b6000602082019050919050565b600061189282611790565b61189c818561179b565b9350836020820285016118ae856117ac565b8060005b858110156118ea57848403895281516118cb8582611866565b94506118d68361187a565b925060208a019950506001810190506118b2565b50829750879550505050505092915050565b600060208201905081810360008301526119168184611887565b905092915050565b6000602082840312156119345761193361120d565b5b600082013567ffffffffffffffff81111561195257611951611212565b5b61195e8482850161132f565b91505092915050565b60006020828403121561197d5761197c61120d565b5b600061198b84828501611497565b91505092915050565b600060ff82169050919050565b6119aa81611994565b82525050565b60006020820190506119c560008301846119a1565b92915050565b600080fd5b600080fd5b6119de8161157a565b81146119e957600080fd5b50565b6000813590506119fb816119d5565b92915050565b600060e08284031215611a1757611a166119cb565b5b611a2160e0611292565b90506000611a318482850161137e565b600083015250602082013567ffffffffffffffff811115611a5557611a546119d0565b5b611a618482850161132f565b6020830152506040611a758482850161137e565b604083015250606082013567ffffffffffffffff811115611a9957611a986119d0565b5b611aa58482850161132f565b606083015250608082013567ffffffffffffffff811115611ac957611ac86119d0565b5b611ad58482850161132f565b60808301525060a0611ae98482850161137e565b60a08301525060c0611afd848285016119ec565b60c08301525092915050565b60008060408385031215611b2057611b1f61120d565b5b600083013567ffffffffffffffff811115611b3e57611b3d611212565b5b611b4a85828601611a01565b9250506020611b5b858286016119ec565b9150509250929050565b7f4e487b7100000000000000000000000000000000000000000000000000000000600052601160045260246000fd5b6000611b9f8261135d565b91507fffffffffffffffffffffffffffffffffffffffffffffffffffffffffffffffff8203611bd157611bd0611b65565b5b600182019050919050565b7f4e487b7100000000000000000000000000000000000000000000000000000000600052602260045260246000fd5b60006002820490506001821680611c2357607f821691505b602082108103611c3657611c35611bdc565b5b50919050565b60008190508160005260206000209050919050565b60006020601f8301049050919050565b600082821b905092915050565b600060088302611c9e7fffffffffffffffffffffffffffffffffffffffffffffffffffffffffffffffff82611c61565b611ca88683611c61565b95508019841693508086168417925050509392505050565b6000819050919050565b6000611ce5611ce0611cdb8461135d565b611cc0565b61135d565b9050919050565b6000819050919050565b611cff83611cca565b611d13611d0b82611cec565b848454611c6e565b825550505050565b600090565b611d28611d1b565b611d33818484611cf6565b505050565b5b81811015611d5757611d4c600082611d20565b600181019050611d39565b5050565b601f821115611d9c57611d6d81611c3c565b611d7684611c51565b81016020851015611d85578190505b611d99611d9185611c51565b830182611d38565b50505b505050565b600082821c905092915050565b6000611dbf60001984600802611da1565b1980831691505092915050565b6000611dd88383611dae565b9150826002028217905092915050565b611df1826114fb565b67ffffffffffffffff811115611e0a57611e09611232565b5b611e148254611c0b565b611e1f828285611d5b565b600060209050601f831160018114611e525760008415611e40578287015190505b611e4a8582611dcc565b865550611eb2565b601f198416611e6086611c3c565b60005b82811015611e8857848901518255600182019150602085019450602081019050611e63565b86831015611ea55784890151611ea1601f891682611dae565b8355505b6001600288020188555050505b505050505050565b7f4e487b7100000000000000000000000000000000000000000000000000000000600052603260045260246000fd5b611ef28161146e565b82525050565b6000611f13611f0e611f098461144e565b611cc0565b61144e565b9050919050565b6000611f2582611ef8565b9050919050565b6000611f3782611f1a565b9050919050565b611f4781611f2c565b82525050565b6000606082019050611f626000830186611ee9565b611f6f6020830185611f3e565b8181036040830152611f818184611687565b905094935050505056fea2646970667358221220d715b5d81e3221239fc5c7b9019618cbad9e46e7b4f1bb64e581d9e05457ee6464736f6c63430008110033",
  "immutableReferences": {},
  "source": "// SPDX-License-Identifier: GPL-3.0\r\npragma solidity ^0.8.4;\r\n\r\ncontract User {\r\n    uint public fileCount = 0; // Number of files\r\n    mapping(address => File[]) public files; // mapping of user against files\r\n    mapping(address => File[]) public sharedFiles; //mapping of user address to list of shared files\r\n    mapping(address => string) public userType; // mapping of address to user type\r\n    struct File {\r\n        uint256 field;\r\n        string fileHash;\r\n        uint256 fileSize;\r\n        string fileType;\r\n        string fileName;\r\n        uint256 uploadTime;\r\n        address payable uploader;\r\n    }\r\n\r\n    constructor() {}\r\n\r\n    event FileUploaded(\r\n        uint256 field,\r\n        string fileHash,\r\n        uint256 fileSize,\r\n        string fileType,\r\n        string fileName,\r\n        uint256 uploadTime,\r\n        address payable uploader\r\n    );\r\n    event FileShared(address sender, address receiver, File file);\r\n\r\n    function uploadFile(\r\n        string memory _fileHash,\r\n        uint _fileSize,\r\n        string memory _fileType,\r\n        string memory _fileName\r\n    ) public {\r\n        require((bytes(_fileHash).length > 0)); // Make sure the file hash exists\r\n\r\n        require((bytes(_fileType).length > 0)); // Make sure file type exists\r\n\r\n        require((bytes(_fileName).length > 0)); // Make sure file fileName exists\r\n\r\n        require(msg.sender != address(0)); // Make sure uploader address exists\r\n\r\n        require(_fileSize > 0); // Make sure file size is more than 0\r\n\r\n        fileCount++; // Increment file id\r\n\r\n        files[msg.sender].push(\r\n            File(\r\n                fileCount,\r\n                _fileHash,\r\n                _fileSize,\r\n                _fileType,\r\n                _fileName,\r\n                block.timestamp,\r\n                payable(msg.sender)\r\n            )\r\n        ); // Add File Id to the contract\r\n\r\n        emit FileUploaded(\r\n            fileCount,\r\n            _fileHash,\r\n            _fileSize,\r\n            _fileType,\r\n            _fileName,\r\n            block.timestamp,\r\n            payable(msg.sender)\r\n        ); // Trigger an event\r\n    }\r\n\r\n    function getFiles() public view returns (File memory) {\r\n        return files[msg.sender][0];\r\n    }\r\n\r\n    function setUserType(string memory _userType) public {\r\n        require(bytes(userType[msg.sender]).length == 0);\r\n\r\n        userType[msg.sender] = _userType;\r\n    }\r\n\r\n    function getUserType() public view returns (string memory) {\r\n        return userType[msg.sender];\r\n    }\r\n\r\n    function getSharedFilesCount() public view returns (uint8) {\r\n        return uint8(sharedFiles[msg.sender].length);\r\n    }\r\n\r\n    function getSharedFiles() public view returns (File[] memory) {\r\n        return sharedFiles[msg.sender];\r\n    }\r\n\r\n    function shareFile(File memory _file, address payable _receiver) public {\r\n        sharedFiles[_receiver].push(_file);\r\n        emit FileShared(msg.sender, _receiver, _file);\r\n    }\r\n}\r\n",
  "sourcePath": "C:\\Users\\Varun Koranne\\Desktop\\WebDev\\SE\\MedChain\\truffleServer\\contracts\\User.sol",
  "compiler": {
    "name": "solc",
    "version": "0.8.17+commit.8df45f5f.Emscripten.clang"
  },
  "schemaVersion": "3.4.4",
  "updatedAt": "2022-11-06T12:34:35.234Z",
  "devdoc": {
    "kind": "dev",
    "methods": {},
    "version": 1
  },
  "userdoc": {
    "kind": "user",
    "methods": {},
    "version": 1
  }
}