{
  "contractName": "Doctor",
  "abi": [
    {
      "inputs": [],
      "stateMutability": "nonpayable",
      "type": "constructor"
    },
    {
      "anonymous": false,
      "inputs": [
        {
          "indexed": false,
          "internalType": "uint256",
          "name": "_docid",
          "type": "uint256"
        },
        {
          "indexed": false,
          "internalType": "string",
          "name": "_firstName",
          "type": "string"
        },
        {
          "indexed": false,
          "internalType": "string",
          "name": "_lastName",
          "type": "string"
        }
      ],
      "name": "DocRegistered",
      "type": "event"
    },
    {
      "anonymous": false,
      "inputs": [
        {
          "indexed": false,
          "internalType": "address",
          "name": "sender",
          "type": "address"
        },
        {
          "indexed": false,
          "internalType": "address",
          "name": "receiver",
          "type": "address"
        },
        {
          "components": [
            {
              "internalType": "uint256",
              "name": "field",
              "type": "uint256"
            },
            {
              "internalType": "string",
              "name": "fileHash",
              "type": "string"
            },
            {
              "internalType": "uint256",
              "name": "fileSize",
              "type": "uint256"
            },
            {
              "internalType": "string",
              "name": "fileType",
              "type": "string"
            },
            {
              "internalType": "string",
              "name": "fileName",
              "type": "string"
            },
            {
              "internalType": "uint256",
              "name": "uploadTime",
              "type": "uint256"
            },
            {
              "internalType": "address payable",
              "name": "uploader",
              "type": "address"
            }
          ],
          "indexed": false,
          "internalType": "struct User.File",
          "name": "file",
          "type": "tuple"
        }
      ],
      "name": "FileShared",
      "type": "event"
    },
    {
      "anonymous": false,
      "inputs": [
        {
          "indexed": false,
          "internalType": "uint256",
          "name": "field",
          "type": "uint256"
        },
        {
          "indexed": false,
          "internalType": "string",
          "name": "fileHash",
          "type": "string"
        },
        {
          "indexed": false,
          "internalType": "uint256",
          "name": "fileSize",
          "type": "uint256"
        },
        {
          "indexed": false,
          "internalType": "string",
          "name": "fileType",
          "type": "string"
        },
        {
          "indexed": false,
          "internalType": "string",
          "name": "fileName",
          "type": "string"
        },
        {
          "indexed": false,
          "internalType": "uint256",
          "name": "uploadTime",
          "type": "uint256"
        },
        {
          "indexed": false,
          "internalType": "address payable",
          "name": "uploader",
          "type": "address"
        }
      ],
      "name": "FileUploaded",
      "type": "event"
    },
    {
      "inputs": [],
      "name": "docCount",
      "outputs": [
        {
          "internalType": "uint256",
          "name": "",
          "type": "uint256"
        }
      ],
      "stateMutability": "view",
      "type": "function"
    },
    {
      "inputs": [
        {
          "internalType": "address",
          "name": "",
          "type": "address"
        }
      ],
      "name": "docList",
      "outputs": [
        {
          "internalType": "uint256",
          "name": "id",
          "type": "uint256"
        },
        {
          "internalType": "string",
          "name": "firstName",
          "type": "string"
        },
        {
          "internalType": "string",
          "name": "lastName",
          "type": "string"
        }
      ],
      "stateMutability": "view",
      "type": "function"
    },
    {
      "inputs": [],
      "name": "fileCount",
      "outputs": [
        {
          "internalType": "uint256",
          "name": "",
          "type": "uint256"
        }
      ],
      "stateMutability": "view",
      "type": "function"
    },
    {
      "inputs": [
        {
          "internalType": "address",
          "name": "",
          "type": "address"
        },
        {
          "internalType": "uint256",
          "name": "",
          "type": "uint256"
        }
      ],
      "name": "files",
      "outputs": [
        {
          "internalType": "uint256",
          "name": "field",
          "type": "uint256"
        },
        {
          "internalType": "string",
          "name": "fileHash",
          "type": "string"
        },
        {
          "internalType": "uint256",
          "name": "fileSize",
          "type": "uint256"
        },
        {
          "internalType": "string",
          "name": "fileType",
          "type": "string"
        },
        {
          "internalType": "string",
          "name": "fileName",
          "type": "string"
        },
        {
          "internalType": "uint256",
          "name": "uploadTime",
          "type": "uint256"
        },
        {
          "internalType": "address payable",
          "name": "uploader",
          "type": "address"
        }
      ],
      "stateMutability": "view",
      "type": "function"
    },
    {
      "inputs": [],
      "name": "getFiles",
      "outputs": [
        {
          "components": [
            {
              "internalType": "uint256",
              "name": "field",
              "type": "uint256"
            },
            {
              "internalType": "string",
              "name": "fileHash",
              "type": "string"
            },
            {
              "internalType": "uint256",
              "name": "fileSize",
              "type": "uint256"
            },
            {
              "internalType": "string",
              "name": "fileType",
              "type": "string"
            },
            {
              "internalType": "string",
              "name": "fileName",
              "type": "string"
            },
            {
              "internalType": "uint256",
              "name": "uploadTime",
              "type": "uint256"
            },
            {
              "internalType": "address payable",
              "name": "uploader",
              "type": "address"
            }
          ],
          "internalType": "struct User.File",
          "name": "",
          "type": "tuple"
        }
      ],
      "stateMutability": "view",
      "type": "function"
    },
    {
      "inputs": [],
      "name": "getSharedFiles",
      "outputs": [
        {
          "components": [
            {
              "internalType": "uint256",
              "name": "field",
              "type": "uint256"
            },
            {
              "internalType": "string",
              "name": "fileHash",
              "type": "string"
            },
            {
              "internalType": "uint256",
              "name": "fileSize",
              "type": "uint256"
            },
            {
              "internalType": "string",
              "name": "fileType",
              "type": "string"
            },
            {
              "internalType": "string",
              "name": "fileName",
              "type": "string"
            },
            {
              "internalType": "uint256",
              "name": "uploadTime",
              "type": "uint256"
            },
            {
              "internalType": "address payable",
              "name": "uploader",
              "type": "address"
            }
          ],
          "internalType": "struct User.File[]",
          "name": "",
          "type": "tuple[]"
        }
      ],
      "stateMutability": "view",
      "type": "function"
    },
    {
      "inputs": [],
      "name": "getSharedFilesCount",
      "outputs": [
        {
          "internalType": "uint8",
          "name": "",
          "type": "uint8"
        }
      ],
      "stateMutability": "view",
      "type": "function"
    },
    {
      "inputs": [],
      "name": "getUserType",
      "outputs": [
        {
          "internalType": "string",
          "name": "",
          "type": "string"
        }
      ],
      "stateMutability": "view",
      "type": "function"
    },
    {
      "inputs": [
        {
          "internalType": "string",
          "name": "_userType",
          "type": "string"
        }
      ],
      "name": "setUserType",
      "outputs": [],
      "stateMutability": "nonpayable",
      "type": "function"
    },
    {
      "inputs": [
        {
          "components": [
            {
              "internalType": "uint256",
              "name": "field",
              "type": "uint256"
            },
            {
              "internalType": "string",
              "name": "fileHash",
              "type": "string"
            },
            {
              "internalType": "uint256",
              "name": "fileSize",
              "type": "uint256"
            },
            {
              "internalType": "string",
              "name": "fileType",
              "type": "string"
            },
            {
              "internalType": "string",
              "name": "fileName",
              "type": "string"
            },
            {
              "internalType": "uint256",
              "name": "uploadTime",
              "type": "uint256"
            },
            {
              "internalType": "address payable",
              "name": "uploader",
              "type": "address"
            }
          ],
          "internalType": "struct User.File",
          "name": "_file",
          "type": "tuple"
        },
        {
          "internalType": "address payable",
          "name": "_receiver",
          "type": "address"
        }
      ],
      "name": "shareFile",
      "outputs": [],
      "stateMutability": "nonpayable",
      "type": "function"
    },
    {
      "inputs": [
        {
          "internalType": "address",
          "name": "",
          "type": "address"
        },
        {
          "internalType": "uint256",
          "name": "",
          "type": "uint256"
        }
      ],
      "name": "sharedFiles",
      "outputs": [
        {
          "internalType": "uint256",
          "name": "field",
          "type": "uint256"
        },
        {
          "internalType": "string",
          "name": "fileHash",
          "type": "string"
        },
        {
          "internalType": "uint256",
          "name": "fileSize",
          "type": "uint256"
        },
        {
          "internalType": "string",
          "name": "fileType",
          "type": "string"
        },
        {
          "internalType": "string",
          "name": "fileName",
          "type": "string"
        },
        {
          "internalType": "uint256",
          "name": "uploadTime",
          "type": "uint256"
        },
        {
          "internalType": "address payable",
          "name": "uploader",
          "type": "address"
        }
      ],
      "stateMutability": "view",
      "type": "function"
    },
    {
      "inputs": [
        {
          "internalType": "string",
          "name": "_fileHash",
          "type": "string"
        },
        {
          "internalType": "uint256",
          "name": "_fileSize",
          "type": "uint256"
        },
        {
          "internalType": "string",
          "name": "_fileType",
          "type": "string"
        },
        {
          "internalType": "string",
          "name": "_fileName",
          "type": "string"
        }
      ],
      "name": "uploadFile",
      "outputs": [],
      "stateMutability": "nonpayable",
      "type": "function"
    },
    {
      "inputs": [
        {
          "internalType": "address",
          "name": "",
          "type": "address"
        }
      ],
      "name": "userType",
      "outputs": [
        {
          "internalType": "string",
          "name": "",
          "type": "string"
        }
      ],
      "stateMutability": "view",
      "type": "function"
    },
    {
      "inputs": [
        {
          "internalType": "string",
          "name": "_firstName",
          "type": "string"
        },
        {
          "internalType": "string",
          "name": "_lastName",
          "type": "string"
        }
      ],
      "name": "registerDoc",
      "outputs": [],
      "stateMutability": "nonpayable",
      "type": "function"
    },
    {
      "inputs": [],
      "name": "getDoc",
      "outputs": [
        {
          "components": [
            {
              "internalType": "uint256",
              "name": "id",
              "type": "uint256"
            },
            {
              "internalType": "string",
              "name": "firstName",
              "type": "string"
            },
            {
              "internalType": "string",
              "name": "lastName",
              "type": "string"
            }
          ],
          "internalType": "struct Doctor.doc",
          "name": "",
          "type": "tuple"
        }
      ],
      "stateMutability": "view",
      "type": "function"
    }
  ],
  "bytecode": "0x608060405260008055600060045534801561001957600080fd5b506125cd806100296000396000f3fe608060405234801561001057600080fd5b50600436106100f55760003560e01c80635b4c42e511610097578063c584586711610066578063c584586714610296578063ea5530da146102b4578063edd490b4146102d2578063f1932644146102ee576100f5565b80635b4c42e5146101fa578063914e31441461022c578063b12c9d941461024a578063b83458b014610266576100f5565b806341990077116100d3578063419900771461016a57806343953519146101885780634c4dc6e0146101a657806356041432146101c4576100f5565b806320f21708146100fa5780632ba6978e146101165780632da96d731461014c575b600080fd5b610114600480360381019061010f9190611869565b61030a565b005b610130600480360381019061012b9190611982565b610538565b6040516101439796959493929190611a71565b60405180910390f35b61015461074f565b6040516101619190611c07565b60405180910390f35b6101726109f1565b60405161017f9190611c29565b60405180910390f35b610190610ac0565b60405161019d9190611c4b565b60405180910390f35b6101ae610ac6565b6040516101bb9190611c4b565b60405180910390f35b6101de60048036038101906101d99190611982565b610acc565b6040516101f19796959493929190611a71565b60405180910390f35b610214600480360381019061020f9190611c66565b610ce3565b60405161022393929190611c93565b60405180910390f35b610234610e1d565b6040516102419190611e44565b60405180910390f35b610264600480360381019061025f9190611e66565b6110e3565b005b610280600480360381019061027b9190611c66565b61118b565b60405161028d9190611c29565b60405180910390f35b61029e61122b565b6040516102ab9190611f06565b60405180910390f35b6102bc6113b0565b6040516102c99190611f44565b60405180910390f35b6102ec60048036038101906102e7919061209d565b6113fa565b005b610308600480360381019061030391906120f9565b61154b565b005b600084511161031857600080fd5b600082511161032657600080fd5b600081511161033457600080fd5b600073ffffffffffffffffffffffffffffffffffffffff163373ffffffffffffffffffffffffffffffffffffffff160361036d57600080fd5b6000831161037a57600080fd5b60008081548092919061038c906121a0565b9190505550600160003373ffffffffffffffffffffffffffffffffffffffff1673ffffffffffffffffffffffffffffffffffffffff1681526020019081526020016000206040518060e0016040528060005481526020018681526020018581526020018481526020018381526020014281526020013373ffffffffffffffffffffffffffffffffffffffff16815250908060018154018082558091505060019003906000526020600020906007020160009091909190915060008201518160000155602082015181600101908161046391906123f4565b5060408201518160020155606082015181600301908161048391906123f4565b50608082015181600401908161049991906123f4565b5060a0820151816005015560c08201518160060160006101000a81548173ffffffffffffffffffffffffffffffffffffffff021916908373ffffffffffffffffffffffffffffffffffffffff16021790555050507f8afab45e252455189e0428faed31ed4afc4c187924fd4f30fcf4fef26b54353660005485858585423360405161052a9796959493929190611a71565b60405180910390a150505050565b6001602052816000526040600020818154811061055457600080fd5b90600052602060002090600702016000915091505080600001549080600101805461057e90612217565b80601f01602080910402602001604051908101604052809291908181526020018280546105aa90612217565b80156105f75780601f106105cc576101008083540402835291602001916105f7565b820191906000526020600020905b8154815290600101906020018083116105da57829003601f168201915b50505050509080600201549080600301805461061290612217565b80601f016020809104026020016040519081016040528092919081815260200182805461063e90612217565b801561068b5780601f106106605761010080835404028352916020019161068b565b820191906000526020600020905b81548152906001019060200180831161066e57829003601f168201915b5050505050908060040180546106a090612217565b80601f01602080910402602001604051908101604052809291908181526020018280546106cc90612217565b80156107195780601f106106ee57610100808354040283529160200191610719565b820191906000526020600020905b8154815290600101906020018083116106fc57829003601f168201915b5050505050908060050154908060060160009054906101000a900473ffffffffffffffffffffffffffffffffffffffff16905087565b610757611665565b600160003373ffffffffffffffffffffffffffffffffffffffff1673ffffffffffffffffffffffffffffffffffffffff1681526020019081526020016000206000815481106107a9576107a86124c6565b5b90600052602060002090600702016040518060e0016040529081600082015481526020016001820180546107dc90612217565b80601f016020809104026020016040519081016040528092919081815260200182805461080890612217565b80156108555780601f1061082a57610100808354040283529160200191610855565b820191906000526020600020905b81548152906001019060200180831161083857829003601f168201915b505050505081526020016002820154815260200160038201805461087890612217565b80601f01602080910402602001604051908101604052809291908181526020018280546108a490612217565b80156108f15780601f106108c6576101008083540402835291602001916108f1565b820191906000526020600020905b8154815290600101906020018083116108d457829003601f168201915b5050505050815260200160048201805461090a90612217565b80601f016020809104026020016040519081016040528092919081815260200182805461093690612217565b80156109835780601f1061095857610100808354040283529160200191610983565b820191906000526020600020905b81548152906001019060200180831161096657829003601f168201915b50505050508152602001600582015481526020016006820160009054906101000a900473ffffffffffffffffffffffffffffffffffffffff1673ffffffffffffffffffffffffffffffffffffffff1673ffffffffffffffffffffffffffffffffffffffff1681525050905090565b6060600360003373ffffffffffffffffffffffffffffffffffffffff1673ffffffffffffffffffffffffffffffffffffffff1681526020019081526020016000208054610a3d90612217565b80601f0160208091040260200160405190810160405280929190818152602001828054610a6990612217565b8015610ab65780601f10610a8b57610100808354040283529160200191610ab6565b820191906000526020600020905b815481529060010190602001808311610a9957829003601f168201915b5050505050905090565b60005481565b60045481565b60026020528160005260406000208181548110610ae857600080fd5b906000526020600020906007020160009150915050806000015490806001018054610b1290612217565b80601f0160208091040260200160405190810160405280929190818152602001828054610b3e90612217565b8015610b8b5780601f10610b6057610100808354040283529160200191610b8b565b820191906000526020600020905b815481529060010190602001808311610b6e57829003601f168201915b505050505090806002015490806003018054610ba690612217565b80601f0160208091040260200160405190810160405280929190818152602001828054610bd290612217565b8015610c1f5780601f10610bf457610100808354040283529160200191610c1f565b820191906000526020600020905b815481529060010190602001808311610c0257829003601f168201915b505050505090806004018054610c3490612217565b80601f0160208091040260200160405190810160405280929190818152602001828054610c6090612217565b8015610cad5780601f10610c8257610100808354040283529160200191610cad565b820191906000526020600020905b815481529060010190602001808311610c9057829003601f168201915b5050505050908060050154908060060160009054906101000a900473ffffffffffffffffffffffffffffffffffffffff16905087565b6005602052806000526040600020600091509050806000015490806001018054610d0c90612217565b80601f0160208091040260200160405190810160405280929190818152602001828054610d3890612217565b8015610d855780601f10610d5a57610100808354040283529160200191610d85565b820191906000526020600020905b815481529060010190602001808311610d6857829003601f168201915b505050505090806002018054610d9a90612217565b80601f0160208091040260200160405190810160405280929190818152602001828054610dc690612217565b8015610e135780601f10610de857610100808354040283529160200191610e13565b820191906000526020600020905b815481529060010190602001808311610df657829003601f168201915b5050505050905083565b6060600260003373ffffffffffffffffffffffffffffffffffffffff1673ffffffffffffffffffffffffffffffffffffffff168152602001908152602001600020805480602002602001604051908101604052809291908181526020016000905b828210156110da57838290600052602060002090600702016040518060e001604052908160008201548152602001600182018054610ebb90612217565b80601f0160208091040260200160405190810160405280929190818152602001828054610ee790612217565b8015610f345780601f10610f0957610100808354040283529160200191610f34565b820191906000526020600020905b815481529060010190602001808311610f1757829003601f168201915b5050505050815260200160028201548152602001600382018054610f5790612217565b80601f0160208091040260200160405190810160405280929190818152602001828054610f8390612217565b8015610fd05780601f10610fa557610100808354040283529160200191610fd0565b820191906000526020600020905b815481529060010190602001808311610fb357829003601f168201915b50505050508152602001600482018054610fe990612217565b80601f016020809104026020016040519081016040528092919081815260200182805461101590612217565b80156110625780601f1061103757610100808354040283529160200191611062565b820191906000526020600020905b81548152906001019060200180831161104557829003601f168201915b50505050508152602001600582015481526020016006820160009054906101000a900473ffffffffffffffffffffffffffffffffffffffff1673ffffffffffffffffffffffffffffffffffffffff1673ffffffffffffffffffffffffffffffffffffffff168152505081526020019060010190610e7e565b50505050905090565b6000600360003373ffffffffffffffffffffffffffffffffffffffff1673ffffffffffffffffffffffffffffffffffffffff168152602001908152602001600020805461112f90612217565b90501461113b57600080fd5b80600360003373ffffffffffffffffffffffffffffffffffffffff1673ffffffffffffffffffffffffffffffffffffffff168152602001908152602001600020908161118791906123f4565b5050565b600360205280600052604060002060009150905080546111aa90612217565b80601f01602080910402602001604051908101604052809291908181526020018280546111d690612217565b80156112235780601f106111f857610100808354040283529160200191611223565b820191906000526020600020905b81548152906001019060200180831161120657829003601f168201915b505050505081565b6112336116b8565b600560003373ffffffffffffffffffffffffffffffffffffffff1673ffffffffffffffffffffffffffffffffffffffff1681526020019081526020016000206040518060600160405290816000820154815260200160018201805461129790612217565b80601f01602080910402602001604051908101604052809291908181526020018280546112c390612217565b80156113105780601f106112e557610100808354040283529160200191611310565b820191906000526020600020905b8154815290600101906020018083116112f357829003601f168201915b5050505050815260200160028201805461132990612217565b80601f016020809104026020016040519081016040528092919081815260200182805461135590612217565b80156113a25780601f10611377576101008083540402835291602001916113a2565b820191906000526020600020905b81548152906001019060200180831161138557829003601f168201915b505050505081525050905090565b6000600260003373ffffffffffffffffffffffffffffffffffffffff1673ffffffffffffffffffffffffffffffffffffffff16815260200190815260200160002080549050905090565b600260008273ffffffffffffffffffffffffffffffffffffffff1673ffffffffffffffffffffffffffffffffffffffff16815260200190815260200160002082908060018154018082558091505060019003906000526020600020906007020160009091909190915060008201518160000155602082015181600101908161148291906123f4565b506040820151816002015560608201518160030190816114a291906123f4565b5060808201518160040190816114b891906123f4565b5060a0820151816005015560c08201518160060160006101000a81548173ffffffffffffffffffffffffffffffffffffffff021916908373ffffffffffffffffffffffffffffffffffffffff16021790555050507fc3fbfea1182e832f4606a9e4bd8e4c76681492cf2b269e9e3f97be409dbf5baf33828460405161153f93929190612559565b60405180910390a15050565b6000600454101561155b57600080fd5b600082511161156957600080fd5b600081511161157757600080fd5b6004600081548092919061158a906121a0565b91905055506040518060600160405280600454815260200183815260200182815250600560003373ffffffffffffffffffffffffffffffffffffffff1673ffffffffffffffffffffffffffffffffffffffff16815260200190815260200160002060008201518160000155602082015181600101908161160a91906123f4565b50604082015181600201908161162091906123f4565b509050507fa0bbe9f95f420afc39f44a311153e7d1a4698c125ffc5db6f0e989528b4a2236600454838360405161165993929190611c93565b60405180910390a15050565b6040518060e00160405280600081526020016060815260200160008152602001606081526020016060815260200160008152602001600073ffffffffffffffffffffffffffffffffffffffff1681525090565b60405180606001604052806000815260200160608152602001606081525090565b6000604051905090565b600080fd5b600080fd5b600080fd5b600080fd5b6000601f19601f8301169050919050565b7f4e487b7100000000000000000000000000000000000000000000000000000000600052604160045260246000fd5b611740826116f7565b810181811067ffffffffffffffff8211171561175f5761175e611708565b5b80604052505050565b60006117726116d9565b905061177e8282611737565b919050565b600067ffffffffffffffff82111561179e5761179d611708565b5b6117a7826116f7565b9050602081019050919050565b82818337600083830152505050565b60006117d66117d184611783565b611768565b9050828152602081018484840111156117f2576117f16116f2565b5b6117fd8482856117b4565b509392505050565b600082601f83011261181a576118196116ed565b5b813561182a8482602086016117c3565b91505092915050565b6000819050919050565b61184681611833565b811461185157600080fd5b50565b6000813590506118638161183d565b92915050565b60008060008060808587031215611883576118826116e3565b5b600085013567ffffffffffffffff8111156118a1576118a06116e8565b5b6118ad87828801611805565b94505060206118be87828801611854565b935050604085013567ffffffffffffffff8111156118df576118de6116e8565b5b6118eb87828801611805565b925050606085013567ffffffffffffffff81111561190c5761190b6116e8565b5b61191887828801611805565b91505092959194509250565b600073ffffffffffffffffffffffffffffffffffffffff82169050919050565b600061194f82611924565b9050919050565b61195f81611944565b811461196a57600080fd5b50565b60008135905061197c81611956565b92915050565b60008060408385031215611999576119986116e3565b5b60006119a78582860161196d565b92505060206119b885828601611854565b9150509250929050565b6119cb81611833565b82525050565b600081519050919050565b600082825260208201905092915050565b60005b83811015611a0b5780820151818401526020810190506119f0565b60008484015250505050565b6000611a22826119d1565b611a2c81856119dc565b9350611a3c8185602086016119ed565b611a45816116f7565b840191505092915050565b6000611a5b82611924565b9050919050565b611a6b81611a50565b82525050565b600060e082019050611a86600083018a6119c2565b8181036020830152611a988189611a17565b9050611aa760408301886119c2565b8181036060830152611ab98187611a17565b90508181036080830152611acd8186611a17565b9050611adc60a08301856119c2565b611ae960c0830184611a62565b98975050505050505050565b611afe81611833565b82525050565b600082825260208201905092915050565b6000611b20826119d1565b611b2a8185611b04565b9350611b3a8185602086016119ed565b611b43816116f7565b840191505092915050565b611b5781611a50565b82525050565b600060e083016000830151611b756000860182611af5565b5060208301518482036020860152611b8d8282611b15565b9150506040830151611ba26040860182611af5565b5060608301518482036060860152611bba8282611b15565b91505060808301518482036080860152611bd48282611b15565b91505060a0830151611be960a0860182611af5565b5060c0830151611bfc60c0860182611b4e565b508091505092915050565b60006020820190508181036000830152611c218184611b5d565b905092915050565b60006020820190508181036000830152611c438184611a17565b905092915050565b6000602082019050611c6060008301846119c2565b92915050565b600060208284031215611c7c57611c7b6116e3565b5b6000611c8a8482850161196d565b91505092915050565b6000606082019050611ca860008301866119c2565b8181036020830152611cba8185611a17565b90508181036040830152611cce8184611a17565b9050949350505050565b600081519050919050565b600082825260208201905092915050565b6000819050602082019050919050565b600060e083016000830151611d1c6000860182611af5565b5060208301518482036020860152611d348282611b15565b9150506040830151611d496040860182611af5565b5060608301518482036060860152611d618282611b15565b91505060808301518482036080860152611d7b8282611b15565b91505060a0830151611d9060a0860182611af5565b5060c0830151611da360c0860182611b4e565b508091505092915050565b6000611dba8383611d04565b905092915050565b6000602082019050919050565b6000611dda82611cd8565b611de48185611ce3565b935083602082028501611df685611cf4565b8060005b85811015611e325784840389528151611e138582611dae565b9450611e1e83611dc2565b925060208a01995050600181019050611dfa565b50829750879550505050505092915050565b60006020820190508181036000830152611e5e8184611dcf565b905092915050565b600060208284031215611e7c57611e7b6116e3565b5b600082013567ffffffffffffffff811115611e9a57611e996116e8565b5b611ea684828501611805565b91505092915050565b6000606083016000830151611ec76000860182611af5565b5060208301518482036020860152611edf8282611b15565b91505060408301518482036040860152611ef98282611b15565b9150508091505092915050565b60006020820190508181036000830152611f208184611eaf565b905092915050565b600060ff82169050919050565b611f3e81611f28565b82525050565b6000602082019050611f596000830184611f35565b92915050565b600080fd5b600080fd5b611f7281611a50565b8114611f7d57600080fd5b50565b600081359050611f8f81611f69565b92915050565b600060e08284031215611fab57611faa611f5f565b5b611fb560e0611768565b90506000611fc584828501611854565b600083015250602082013567ffffffffffffffff811115611fe957611fe8611f64565b5b611ff584828501611805565b602083015250604061200984828501611854565b604083015250606082013567ffffffffffffffff81111561202d5761202c611f64565b5b61203984828501611805565b606083015250608082013567ffffffffffffffff81111561205d5761205c611f64565b5b61206984828501611805565b60808301525060a061207d84828501611854565b60a08301525060c061209184828501611f80565b60c08301525092915050565b600080604083850312156120b4576120b36116e3565b5b600083013567ffffffffffffffff8111156120d2576120d16116e8565b5b6120de85828601611f95565b92505060206120ef85828601611f80565b9150509250929050565b600080604083850312156121105761210f6116e3565b5b600083013567ffffffffffffffff81111561212e5761212d6116e8565b5b61213a85828601611805565b925050602083013567ffffffffffffffff81111561215b5761215a6116e8565b5b61216785828601611805565b9150509250929050565b7f4e487b7100000000000000000000000000000000000000000000000000000000600052601160045260246000fd5b60006121ab82611833565b91507fffffffffffffffffffffffffffffffffffffffffffffffffffffffffffffffff82036121dd576121dc612171565b5b600182019050919050565b7f4e487b7100000000000000000000000000000000000000000000000000000000600052602260045260246000fd5b6000600282049050600182168061222f57607f821691505b602082108103612242576122416121e8565b5b50919050565b60008190508160005260206000209050919050565b60006020601f8301049050919050565b600082821b905092915050565b6000600883026122aa7fffffffffffffffffffffffffffffffffffffffffffffffffffffffffffffffff8261226d565b6122b4868361226d565b95508019841693508086168417925050509392505050565b6000819050919050565b60006122f16122ec6122e784611833565b6122cc565b611833565b9050919050565b6000819050919050565b61230b836122d6565b61231f612317826122f8565b84845461227a565b825550505050565b600090565b612334612327565b61233f818484612302565b505050565b5b818110156123635761235860008261232c565b600181019050612345565b5050565b601f8211156123a85761237981612248565b6123828461225d565b81016020851015612391578190505b6123a561239d8561225d565b830182612344565b50505b505050565b600082821c905092915050565b60006123cb600019846008026123ad565b1980831691505092915050565b60006123e483836123ba565b9150826002028217905092915050565b6123fd826119d1565b67ffffffffffffffff81111561241657612415611708565b5b6124208254612217565b61242b828285612367565b600060209050601f83116001811461245e576000841561244c578287015190505b61245685826123d8565b8655506124be565b601f19841661246c86612248565b60005b828110156124945784890151825560018201915060208501945060208101905061246f565b868310156124b157848901516124ad601f8916826123ba565b8355505b6001600288020188555050505b505050505050565b7f4e487b7100000000000000000000000000000000000000000000000000000000600052603260045260246000fd5b6124fe81611944565b82525050565b600061251f61251a61251584611924565b6122cc565b611924565b9050919050565b600061253182612504565b9050919050565b600061254382612526565b9050919050565b61255381612538565b82525050565b600060608201905061256e60008301866124f5565b61257b602083018561254a565b818103604083015261258d8184611b5d565b905094935050505056fea264697066735822122054fb7ff9ebedab26f37f37c75ec2b16898ec96630f41e94198a3f9d75792d4c564736f6c63430008110033",
  "immutableReferences": {},
  "source": "// SPDX-License-Identifier: GPL-3.0\r\npragma solidity ^0.8.4;\r\nimport \"./User.sol\";\r\n\r\ncontract Doctor is User {\r\n    uint public docCount = 0;\r\n    struct doc {\r\n        uint256 id;\r\n        string firstName;\r\n        string lastName;\r\n    }\r\n    mapping(address => doc) public docList;\r\n\r\n    constructor() {}\r\n\r\n    event DocRegistered(\r\n        uint256 _docid,\r\n        string _firstName,\r\n        string _lastName\r\n    );\r\n\r\n    function registerDoc(\r\n        string memory _firstName,\r\n        string memory _lastName\r\n    ) public {\r\n        require((docCount >= 0)); // Make sure the file hash exists\r\n\r\n        require((bytes(_firstName).length > 0)); // Make sure file type exists\r\n\r\n        require((bytes(_lastName).length > 0));\r\n\r\n        docCount++;\r\n\r\n        docList[msg.sender] = doc(docCount, _firstName, _lastName);\r\n\r\n        emit DocRegistered(docCount, _firstName, _lastName);\r\n    }\r\n\r\n    function getDoc() public view returns (doc memory) {\r\n        return docList[msg.sender];\r\n    }\r\n}\r\n",
  "sourcePath": "C:\\Users\\Varun Koranne\\Desktop\\WebDev\\SE\\MedChain\\truffleServer\\contracts\\Doctor.sol",
  "compiler": {
    "name": "solc",
    "version": "0.8.17+commit.8df45f5f.Emscripten.clang"
  },
  "schemaVersion": "3.4.4",
  "updatedAt": "2022-11-06T14:37:07.155Z",
  "devdoc": {
    "kind": "dev",
    "methods": {},
    "version": 1
  },
  "userdoc": {
    "kind": "user",
    "methods": {},
    "version": 1
  }
}