{
  "contractName": "Patient",
  "abi": [
    {
      "inputs": [],
      "stateMutability": "nonpayable",
      "type": "constructor"
    },
    {
      "anonymous": false,
      "inputs": [
        {
          "indexed": false,
          "internalType": "uint256",
          "name": "_docid",
          "type": "uint256"
        },
        {
          "indexed": false,
          "internalType": "uint256",
          "name": "_dob",
          "type": "uint256"
        },
        {
          "indexed": false,
          "internalType": "string",
          "name": "_firstName",
          "type": "string"
        },
        {
          "indexed": false,
          "internalType": "string",
          "name": "_lastName",
          "type": "string"
        }
      ],
      "name": "PatientRegistered",
      "type": "event"
    },
    {
      "inputs": [],
      "name": "patientCount",
      "outputs": [
        {
          "internalType": "uint256",
          "name": "",
          "type": "uint256"
        }
      ],
      "stateMutability": "view",
      "type": "function"
    },
    {
      "inputs": [
        {
          "internalType": "address",
          "name": "",
          "type": "address"
        }
      ],
      "name": "patientList",
      "outputs": [
        {
          "internalType": "uint256",
          "name": "id",
          "type": "uint256"
        },
        {
          "internalType": "uint256",
          "name": "dob",
          "type": "uint256"
        },
        {
          "internalType": "string",
          "name": "firstName",
          "type": "string"
        },
        {
          "internalType": "string",
          "name": "lastName",
          "type": "string"
        }
      ],
      "stateMutability": "view",
      "type": "function"
    },
    {
      "inputs": [
        {
          "internalType": "uint256",
          "name": "_dob",
          "type": "uint256"
        },
        {
          "internalType": "string",
          "name": "_firstName",
          "type": "string"
        },
        {
          "internalType": "string",
          "name": "_lastName",
          "type": "string"
        }
      ],
      "name": "registerPatient",
      "outputs": [],
      "stateMutability": "nonpayable",
      "type": "function"
    },
    {
      "inputs": [],
      "name": "getPatient",
      "outputs": [
        {
          "components": [
            {
              "internalType": "uint256",
              "name": "id",
              "type": "uint256"
            },
            {
              "internalType": "uint256",
              "name": "dob",
              "type": "uint256"
            },
            {
              "internalType": "string",
              "name": "firstName",
              "type": "string"
            },
            {
              "internalType": "string",
              "name": "lastName",
              "type": "string"
            }
          ],
          "internalType": "struct Patient.patient",
          "name": "",
          "type": "tuple"
        }
      ],
      "stateMutability": "view",
      "type": "function"
    }
  ],
  "bytecode": "0x60806040526000805534801561001457600080fd5b50610d16806100246000396000f3fe608060405234801561001057600080fd5b506004361061004c5760003560e01c80637b0f9a3614610051578063a0303c411461006f578063b58202421461008d578063da2e626f146100a9575b600080fd5b6100596100dc565b6040516100669190610617565b60405180910390f35b61007761026b565b6040516100849190610648565b60405180910390f35b6100a760048036038101906100a291906107d8565b610271565b005b6100c360048036038101906100be91906108c1565b61039c565b6040516100d39493929190610938565b60405180910390f35b6100e46104dc565b600160003373ffffffffffffffffffffffffffffffffffffffff1673ffffffffffffffffffffffffffffffffffffffff1681526020019081526020016000206040518060800160405290816000820154815260200160018201548152602001600282018054610152906109ba565b80601f016020809104026020016040519081016040528092919081815260200182805461017e906109ba565b80156101cb5780601f106101a0576101008083540402835291602001916101cb565b820191906000526020600020905b8154815290600101906020018083116101ae57829003601f168201915b505050505081526020016003820180546101e4906109ba565b80601f0160208091040260200160405190810160405280929190818152602001828054610210906109ba565b801561025d5780601f106102325761010080835404028352916020019161025d565b820191906000526020600020905b81548152906001019060200180831161024057829003601f168201915b505050505081525050905090565b60005481565b60008054101561028057600080fd5b600082511161028e57600080fd5b600081511161029c57600080fd5b6000808154809291906102ae90610a1a565b91905055506040518060800160405280600054815260200184815260200183815260200182815250600160003373ffffffffffffffffffffffffffffffffffffffff1673ffffffffffffffffffffffffffffffffffffffff1681526020019081526020016000206000820151816000015560208201518160010155604082015181600201908161033e9190610c0e565b5060608201518160030190816103549190610c0e565b509050507fac7c6c19654652bc5a204666976b63065656decacbda9eb97a50d7ee6f291ffd60005484848460405161038f9493929190610938565b60405180910390a1505050565b60016020528060005260406000206000915090508060000154908060010154908060020180546103cb906109ba565b80601f01602080910402602001604051908101604052809291908181526020018280546103f7906109ba565b80156104445780601f1061041957610100808354040283529160200191610444565b820191906000526020600020905b81548152906001019060200180831161042757829003601f168201915b505050505090806003018054610459906109ba565b80601f0160208091040260200160405190810160405280929190818152602001828054610485906109ba565b80156104d25780601f106104a7576101008083540402835291602001916104d2565b820191906000526020600020905b8154815290600101906020018083116104b557829003601f168201915b5050505050905084565b6040518060800160405280600081526020016000815260200160608152602001606081525090565b6000819050919050565b61051781610504565b82525050565b600081519050919050565b600082825260208201905092915050565b60005b8381101561055757808201518184015260208101905061053c565b60008484015250505050565b6000601f19601f8301169050919050565b600061057f8261051d565b6105898185610528565b9350610599818560208601610539565b6105a281610563565b840191505092915050565b60006080830160008301516105c5600086018261050e565b5060208301516105d8602086018261050e565b50604083015184820360408601526105f08282610574565b9150506060830151848203606086015261060a8282610574565b9150508091505092915050565b6000602082019050818103600083015261063181846105ad565b905092915050565b61064281610504565b82525050565b600060208201905061065d6000830184610639565b92915050565b6000604051905090565b600080fd5b600080fd5b61068081610504565b811461068b57600080fd5b50565b60008135905061069d81610677565b92915050565b600080fd5b600080fd5b7f4e487b7100000000000000000000000000000000000000000000000000000000600052604160045260246000fd5b6106e582610563565b810181811067ffffffffffffffff82111715610704576107036106ad565b5b80604052505050565b6000610717610663565b905061072382826106dc565b919050565b600067ffffffffffffffff821115610743576107426106ad565b5b61074c82610563565b9050602081019050919050565b82818337600083830152505050565b600061077b61077684610728565b61070d565b905082815260208101848484011115610797576107966106a8565b5b6107a2848285610759565b509392505050565b600082601f8301126107bf576107be6106a3565b5b81356107cf848260208601610768565b91505092915050565b6000806000606084860312156107f1576107f061066d565b5b60006107ff8682870161068e565b935050602084013567ffffffffffffffff8111156108205761081f610672565b5b61082c868287016107aa565b925050604084013567ffffffffffffffff81111561084d5761084c610672565b5b610859868287016107aa565b9150509250925092565b600073ffffffffffffffffffffffffffffffffffffffff82169050919050565b600061088e82610863565b9050919050565b61089e81610883565b81146108a957600080fd5b50565b6000813590506108bb81610895565b92915050565b6000602082840312156108d7576108d661066d565b5b60006108e5848285016108ac565b91505092915050565b600082825260208201905092915050565b600061090a8261051d565b61091481856108ee565b9350610924818560208601610539565b61092d81610563565b840191505092915050565b600060808201905061094d6000830187610639565b61095a6020830186610639565b818103604083015261096c81856108ff565b9050818103606083015261098081846108ff565b905095945050505050565b7f4e487b7100000000000000000000000000000000000000000000000000000000600052602260045260246000fd5b600060028204905060018216806109d257607f821691505b6020821081036109e5576109e461098b565b5b50919050565b7f4e487b7100000000000000000000000000000000000000000000000000000000600052601160045260246000fd5b6000610a2582610504565b91507fffffffffffffffffffffffffffffffffffffffffffffffffffffffffffffffff8203610a5757610a566109eb565b5b600182019050919050565b60008190508160005260206000209050919050565b60006020601f8301049050919050565b600082821b905092915050565b600060088302610ac47fffffffffffffffffffffffffffffffffffffffffffffffffffffffffffffffff82610a87565b610ace8683610a87565b95508019841693508086168417925050509392505050565b6000819050919050565b6000610b0b610b06610b0184610504565b610ae6565b610504565b9050919050565b6000819050919050565b610b2583610af0565b610b39610b3182610b12565b848454610a94565b825550505050565b600090565b610b4e610b41565b610b59818484610b1c565b505050565b5b81811015610b7d57610b72600082610b46565b600181019050610b5f565b5050565b601f821115610bc257610b9381610a62565b610b9c84610a77565b81016020851015610bab578190505b610bbf610bb785610a77565b830182610b5e565b50505b505050565b600082821c905092915050565b6000610be560001984600802610bc7565b1980831691505092915050565b6000610bfe8383610bd4565b9150826002028217905092915050565b610c178261051d565b67ffffffffffffffff811115610c3057610c2f6106ad565b5b610c3a82546109ba565b610c45828285610b81565b600060209050601f831160018114610c785760008415610c66578287015190505b610c708582610bf2565b865550610cd8565b601f198416610c8686610a62565b60005b82811015610cae57848901518255600182019150602085019450602081019050610c89565b86831015610ccb5784890151610cc7601f891682610bd4565b8355505b6001600288020188555050505b50505050505056fea264697066735822122013099c6faf650ff62f61cd15c0ef4f0b02444689c58a69cf2031ac55c7ccffc264736f6c63430008110033",
  "immutableReferences": {},
  "source": "// SPDX-License-Identifier: GPL-3.0\r\npragma solidity ^0.8.4;\r\n\r\ncontract Patient {\r\n    uint public patientCount = 0;\r\n    struct patient {\r\n        uint256 id;\r\n        uint256 dob;\r\n        string firstName;\r\n        string lastName;\r\n    }\r\n    mapping(address => patient) public patientList;\r\n\r\n    event PatientRegistered(\r\n        uint256 _docid,\r\n        uint256 _dob,\r\n        string _firstName,\r\n        string _lastName\r\n    );\r\n\r\n    function registerPatient(\r\n        uint _dob,\r\n        string memory _firstName,\r\n        string memory _lastName\r\n    ) public {\r\n        require((patientCount >= 0)); // Make sure the file hash exists\r\n\r\n        require((bytes(_firstName).length > 0)); // Make sure file type exists\r\n\r\n        require((bytes(_lastName).length > 0));\r\n\r\n        patientCount++;\r\n\r\n        patientList[msg.sender] = patient(\r\n            patientCount,\r\n            _dob,\r\n            _firstName,\r\n            _lastName\r\n        );\r\n\r\n        emit PatientRegistered(patientCount, _dob, _firstName, _lastName);\r\n    }\r\n\r\n    function getPatient() public view returns (patient memory) {\r\n        return patientList[msg.sender];\r\n    }\r\n\r\n    constructor() {}\r\n}\r\n",
  "sourcePath": "C:\\Users\\Varun Koranne\\Desktop\\WebDev\\SE\\MedChain\\truffleServer\\contracts\\Patient.sol",
  "compiler": {
    "name": "solc",
    "version": "0.8.17+commit.8df45f5f.Emscripten.clang"
  },
  "schemaVersion": "3.4.4",
  "updatedAt": "2022-11-06T14:37:07.178Z",
  "devdoc": {
    "kind": "dev",
    "methods": {},
    "version": 1
  },
  "userdoc": {
    "kind": "user",
    "methods": {},
    "version": 1
  }
}