{
  "_format": "hh-sol-artifact-1",
  "contractName": "User",
  "sourceName": "contracts/User.sol",
  "abi": [
    {
      "inputs": [],
      "stateMutability": "nonpayable",
      "type": "constructor"
    },
    {
      "anonymous": false,
      "inputs": [
        {
          "indexed": false,
          "internalType": "address",
          "name": "sender",
          "type": "address"
        },
        {
          "indexed": false,
          "internalType": "address",
          "name": "receiver",
          "type": "address"
        },
        {
          "components": [
            {
              "internalType": "uint256",
              "name": "field",
              "type": "uint256"
            },
            {
              "internalType": "string",
              "name": "fileHash",
              "type": "string"
            },
            {
              "internalType": "uint256",
              "name": "fileSize",
              "type": "uint256"
            },
            {
              "internalType": "string",
              "name": "fileType",
              "type": "string"
            },
            {
              "internalType": "string",
              "name": "fileName",
              "type": "string"
            },
            {
              "internalType": "uint256",
              "name": "uploadTime",
              "type": "uint256"
            },
            {
              "internalType": "address payable",
              "name": "uploader",
              "type": "address"
            }
          ],
          "indexed": false,
          "internalType": "struct User.File",
          "name": "file",
          "type": "tuple"
        }
      ],
      "name": "FileShared",
      "type": "event"
    },
    {
      "anonymous": false,
      "inputs": [
        {
          "indexed": false,
          "internalType": "uint256",
          "name": "field",
          "type": "uint256"
        },
        {
          "indexed": false,
          "internalType": "string",
          "name": "fileHash",
          "type": "string"
        },
        {
          "indexed": false,
          "internalType": "uint256",
          "name": "fileSize",
          "type": "uint256"
        },
        {
          "indexed": false,
          "internalType": "string",
          "name": "fileType",
          "type": "string"
        },
        {
          "indexed": false,
          "internalType": "string",
          "name": "fileName",
          "type": "string"
        },
        {
          "indexed": false,
          "internalType": "uint256",
          "name": "uploadTime",
          "type": "uint256"
        },
        {
          "indexed": false,
          "internalType": "address payable",
          "name": "uploader",
          "type": "address"
        }
      ],
      "name": "FileUploaded",
      "type": "event"
    },
    {
      "inputs": [],
      "name": "fileCount",
      "outputs": [
        {
          "internalType": "uint256",
          "name": "",
          "type": "uint256"
        }
      ],
      "stateMutability": "view",
      "type": "function"
    },
    {
      "inputs": [
        {
          "internalType": "address",
          "name": "",
          "type": "address"
        },
        {
          "internalType": "uint256",
          "name": "",
          "type": "uint256"
        }
      ],
      "name": "files",
      "outputs": [
        {
          "internalType": "uint256",
          "name": "field",
          "type": "uint256"
        },
        {
          "internalType": "string",
          "name": "fileHash",
          "type": "string"
        },
        {
          "internalType": "uint256",
          "name": "fileSize",
          "type": "uint256"
        },
        {
          "internalType": "string",
          "name": "fileType",
          "type": "string"
        },
        {
          "internalType": "string",
          "name": "fileName",
          "type": "string"
        },
        {
          "internalType": "uint256",
          "name": "uploadTime",
          "type": "uint256"
        },
        {
          "internalType": "address payable",
          "name": "uploader",
          "type": "address"
        }
      ],
      "stateMutability": "view",
      "type": "function"
    },
    {
      "inputs": [],
      "name": "getFiles",
      "outputs": [
        {
          "components": [
            {
              "internalType": "uint256",
              "name": "field",
              "type": "uint256"
            },
            {
              "internalType": "string",
              "name": "fileHash",
              "type": "string"
            },
            {
              "internalType": "uint256",
              "name": "fileSize",
              "type": "uint256"
            },
            {
              "internalType": "string",
              "name": "fileType",
              "type": "string"
            },
            {
              "internalType": "string",
              "name": "fileName",
              "type": "string"
            },
            {
              "internalType": "uint256",
              "name": "uploadTime",
              "type": "uint256"
            },
            {
              "internalType": "address payable",
              "name": "uploader",
              "type": "address"
            }
          ],
          "internalType": "struct User.File",
          "name": "",
          "type": "tuple"
        }
      ],
      "stateMutability": "view",
      "type": "function"
    },
    {
      "inputs": [],
      "name": "getSharedFiles",
      "outputs": [
        {
          "components": [
            {
              "internalType": "uint256",
              "name": "field",
              "type": "uint256"
            },
            {
              "internalType": "string",
              "name": "fileHash",
              "type": "string"
            },
            {
              "internalType": "uint256",
              "name": "fileSize",
              "type": "uint256"
            },
            {
              "internalType": "string",
              "name": "fileType",
              "type": "string"
            },
            {
              "internalType": "string",
              "name": "fileName",
              "type": "string"
            },
            {
              "internalType": "uint256",
              "name": "uploadTime",
              "type": "uint256"
            },
            {
              "internalType": "address payable",
              "name": "uploader",
              "type": "address"
            }
          ],
          "internalType": "struct User.File[]",
          "name": "",
          "type": "tuple[]"
        }
      ],
      "stateMutability": "view",
      "type": "function"
    },
    {
      "inputs": [],
      "name": "getSharedFilesCount",
      "outputs": [
        {
          "internalType": "uint8",
          "name": "",
          "type": "uint8"
        }
      ],
      "stateMutability": "view",
      "type": "function"
    },
    {
      "inputs": [],
      "name": "getUserType",
      "outputs": [
        {
          "internalType": "string",
          "name": "",
          "type": "string"
        }
      ],
      "stateMutability": "view",
      "type": "function"
    },
    {
      "inputs": [
        {
          "internalType": "string",
          "name": "_userType",
          "type": "string"
        }
      ],
      "name": "setUserType",
      "outputs": [],
      "stateMutability": "nonpayable",
      "type": "function"
    },
    {
      "inputs": [
        {
          "components": [
            {
              "internalType": "uint256",
              "name": "field",
              "type": "uint256"
            },
            {
              "internalType": "string",
              "name": "fileHash",
              "type": "string"
            },
            {
              "internalType": "uint256",
              "name": "fileSize",
              "type": "uint256"
            },
            {
              "internalType": "string",
              "name": "fileType",
              "type": "string"
            },
            {
              "internalType": "string",
              "name": "fileName",
              "type": "string"
            },
            {
              "internalType": "uint256",
              "name": "uploadTime",
              "type": "uint256"
            },
            {
              "internalType": "address payable",
              "name": "uploader",
              "type": "address"
            }
          ],
          "internalType": "struct User.File",
          "name": "_file",
          "type": "tuple"
        },
        {
          "internalType": "address payable",
          "name": "_receiver",
          "type": "address"
        }
      ],
      "name": "shareFile",
      "outputs": [],
      "stateMutability": "nonpayable",
      "type": "function"
    },
    {
      "inputs": [
        {
          "internalType": "address",
          "name": "",
          "type": "address"
        },
        {
          "internalType": "uint256",
          "name": "",
          "type": "uint256"
        }
      ],
      "name": "sharedFiles",
      "outputs": [
        {
          "internalType": "uint256",
          "name": "field",
          "type": "uint256"
        },
        {
          "internalType": "string",
          "name": "fileHash",
          "type": "string"
        },
        {
          "internalType": "uint256",
          "name": "fileSize",
          "type": "uint256"
        },
        {
          "internalType": "string",
          "name": "fileType",
          "type": "string"
        },
        {
          "internalType": "string",
          "name": "fileName",
          "type": "string"
        },
        {
          "internalType": "uint256",
          "name": "uploadTime",
          "type": "uint256"
        },
        {
          "internalType": "address payable",
          "name": "uploader",
          "type": "address"
        }
      ],
      "stateMutability": "view",
      "type": "function"
    },
    {
      "inputs": [
        {
          "internalType": "string",
          "name": "_fileHash",
          "type": "string"
        },
        {
          "internalType": "uint256",
          "name": "_fileSize",
          "type": "uint256"
        },
        {
          "internalType": "string",
          "name": "_fileType",
          "type": "string"
        },
        {
          "internalType": "string",
          "name": "_fileName",
          "type": "string"
        }
      ],
      "name": "uploadFile",
      "outputs": [],
      "stateMutability": "nonpayable",
      "type": "function"
    },
    {
      "inputs": [
        {
          "internalType": "address",
          "name": "",
          "type": "address"
        }
      ],
      "name": "userType",
      "outputs": [
        {
          "internalType": "string",
          "name": "",
          "type": "string"
        }
      ],
      "stateMutability": "view",
      "type": "function"
    }
  ],
  "bytecode": "0x60806040526000805534801561001457600080fd5b50611dac806100246000396000f3fe608060405234801561001057600080fd5b50600436106100a95760003560e01c80635604143211610071578063560414321461015a578063914e314414610190578063b12c9d94146101ae578063b83458b0146101ca578063ea5530da146101fa578063edd490b414610218576100a9565b806320f21708146100ae5780632ba6978e146100ca5780632da96d7314610100578063419900771461011e578063439535191461013c575b600080fd5b6100c860048036038101906100c39190611543565b610234565b005b6100e460048036038101906100df91906114c6565b610478565b6040516100f797969594939291906119b9565b60405180910390f35b61010861068f565b604051610115919061197c565b60405180910390f35b610126610957565b604051610133919061195a565b60405180910390f35b610144610a26565b604051610151919061199e565b60405180910390f35b610174600480360381019061016f91906114c6565b610a2c565b60405161018797969594939291906119b9565b60405180910390f35b610198610c43565b6040516101a59190611938565b60405180910390f35b6101c860048036038101906101c39190611502565b610f09565b005b6101e460048036038101906101df919061149d565b610fb8565b6040516101f1919061195a565b60405180910390f35b610202611058565b60405161020f9190611a3d565b60405180910390f35b610232600480360381019061022d91906115ee565b6110a2565b005b600084511161024257600080fd5b600082511161025057600080fd5b600081511161025e57600080fd5b600073ffffffffffffffffffffffffffffffffffffffff163373ffffffffffffffffffffffffffffffffffffffff16141561029857600080fd5b600083116102a557600080fd5b6000808154809291906102b790611c4a565b9190505550600160003373ffffffffffffffffffffffffffffffffffffffff1673ffffffffffffffffffffffffffffffffffffffff1681526020019081526020016000206040518060e0016040528060005481526020018681526020018581526020018481526020018381526020014281526020013373ffffffffffffffffffffffffffffffffffffffff168152509080600181540180825580915050600190039060005260206000209060070201600090919091909150600082015181600001556020820151816001019080519060200190610395929190611208565b506040820151816002015560608201518160030190805190602001906103bc929190611208565b5060808201518160040190805190602001906103d9929190611208565b5060a0820151816005015560c08201518160060160006101000a81548173ffffffffffffffffffffffffffffffffffffffff021916908373ffffffffffffffffffffffffffffffffffffffff16021790555050507f8afab45e252455189e0428faed31ed4afc4c187924fd4f30fcf4fef26b54353660005485858585423360405161046a97969594939291906119b9565b60405180910390a150505050565b6001602052816000526040600020818154811061049457600080fd5b9060005260206000209060070201600091509150508060000154908060010180546104be90611be7565b80601f01602080910402602001604051908101604052809291908181526020018280546104ea90611be7565b80156105375780601f1061050c57610100808354040283529160200191610537565b820191906000526020600020905b81548152906001019060200180831161051a57829003601f168201915b50505050509080600201549080600301805461055290611be7565b80601f016020809104026020016040519081016040528092919081815260200182805461057e90611be7565b80156105cb5780601f106105a0576101008083540402835291602001916105cb565b820191906000526020600020905b8154815290600101906020018083116105ae57829003601f168201915b5050505050908060040180546105e090611be7565b80601f016020809104026020016040519081016040528092919081815260200182805461060c90611be7565b80156106595780601f1061062e57610100808354040283529160200191610659565b820191906000526020600020905b81548152906001019060200180831161063c57829003601f168201915b5050505050908060050154908060060160009054906101000a900473ffffffffffffffffffffffffffffffffffffffff16905087565b61069761128e565b600160003373ffffffffffffffffffffffffffffffffffffffff1673ffffffffffffffffffffffffffffffffffffffff16815260200190815260200160002060008154811061070f577f4e487b7100000000000000000000000000000000000000000000000000000000600052603260045260246000fd5b90600052602060002090600702016040518060e00160405290816000820154815260200160018201805461074290611be7565b80601f016020809104026020016040519081016040528092919081815260200182805461076e90611be7565b80156107bb5780601f10610790576101008083540402835291602001916107bb565b820191906000526020600020905b81548152906001019060200180831161079e57829003601f168201915b50505050508152602001600282015481526020016003820180546107de90611be7565b80601f016020809104026020016040519081016040528092919081815260200182805461080a90611be7565b80156108575780601f1061082c57610100808354040283529160200191610857565b820191906000526020600020905b81548152906001019060200180831161083a57829003601f168201915b5050505050815260200160048201805461087090611be7565b80601f016020809104026020016040519081016040528092919081815260200182805461089c90611be7565b80156108e95780601f106108be576101008083540402835291602001916108e9565b820191906000526020600020905b8154815290600101906020018083116108cc57829003601f168201915b50505050508152602001600582015481526020016006820160009054906101000a900473ffffffffffffffffffffffffffffffffffffffff1673ffffffffffffffffffffffffffffffffffffffff1673ffffffffffffffffffffffffffffffffffffffff1681525050905090565b6060600360003373ffffffffffffffffffffffffffffffffffffffff1673ffffffffffffffffffffffffffffffffffffffff16815260200190815260200160002080546109a390611be7565b80601f01602080910402602001604051908101604052809291908181526020018280546109cf90611be7565b8015610a1c5780601f106109f157610100808354040283529160200191610a1c565b820191906000526020600020905b8154815290600101906020018083116109ff57829003601f168201915b5050505050905090565b60005481565b60026020528160005260406000208181548110610a4857600080fd5b906000526020600020906007020160009150915050806000015490806001018054610a7290611be7565b80601f0160208091040260200160405190810160405280929190818152602001828054610a9e90611be7565b8015610aeb5780601f10610ac057610100808354040283529160200191610aeb565b820191906000526020600020905b815481529060010190602001808311610ace57829003601f168201915b505050505090806002015490806003018054610b0690611be7565b80601f0160208091040260200160405190810160405280929190818152602001828054610b3290611be7565b8015610b7f5780601f10610b5457610100808354040283529160200191610b7f565b820191906000526020600020905b815481529060010190602001808311610b6257829003601f168201915b505050505090806004018054610b9490611be7565b80601f0160208091040260200160405190810160405280929190818152602001828054610bc090611be7565b8015610c0d5780601f10610be257610100808354040283529160200191610c0d565b820191906000526020600020905b815481529060010190602001808311610bf057829003601f168201915b5050505050908060050154908060060160009054906101000a900473ffffffffffffffffffffffffffffffffffffffff16905087565b6060600260003373ffffffffffffffffffffffffffffffffffffffff1673ffffffffffffffffffffffffffffffffffffffff168152602001908152602001600020805480602002602001604051908101604052809291908181526020016000905b82821015610f0057838290600052602060002090600702016040518060e001604052908160008201548152602001600182018054610ce190611be7565b80601f0160208091040260200160405190810160405280929190818152602001828054610d0d90611be7565b8015610d5a5780601f10610d2f57610100808354040283529160200191610d5a565b820191906000526020600020905b815481529060010190602001808311610d3d57829003601f168201915b5050505050815260200160028201548152602001600382018054610d7d90611be7565b80601f0160208091040260200160405190810160405280929190818152602001828054610da990611be7565b8015610df65780601f10610dcb57610100808354040283529160200191610df6565b820191906000526020600020905b815481529060010190602001808311610dd957829003601f168201915b50505050508152602001600482018054610e0f90611be7565b80601f0160208091040260200160405190810160405280929190818152602001828054610e3b90611be7565b8015610e885780601f10610e5d57610100808354040283529160200191610e88565b820191906000526020600020905b815481529060010190602001808311610e6b57829003601f168201915b50505050508152602001600582015481526020016006820160009054906101000a900473ffffffffffffffffffffffffffffffffffffffff1673ffffffffffffffffffffffffffffffffffffffff1673ffffffffffffffffffffffffffffffffffffffff168152505081526020019060010190610ca4565b50505050905090565b6000600360003373ffffffffffffffffffffffffffffffffffffffff1673ffffffffffffffffffffffffffffffffffffffff1681526020019081526020016000208054610f5590611be7565b905014610f6157600080fd5b80600360003373ffffffffffffffffffffffffffffffffffffffff1673ffffffffffffffffffffffffffffffffffffffff1681526020019081526020016000209080519060200190610fb4929190611208565b5050565b60036020528060005260406000206000915090508054610fd790611be7565b80601f016020809104026020016040519081016040528092919081815260200182805461100390611be7565b80156110505780601f1061102557610100808354040283529160200191611050565b820191906000526020600020905b81548152906001019060200180831161103357829003601f168201915b505050505081565b6000600260003373ffffffffffffffffffffffffffffffffffffffff1673ffffffffffffffffffffffffffffffffffffffff16815260200190815260200160002080549050905090565b600260008273ffffffffffffffffffffffffffffffffffffffff1673ffffffffffffffffffffffffffffffffffffffff168152602001908152602001600020829080600181540180825580915050600190039060005260206000209060070201600090919091909150600082015181600001556020820151816001019080519060200190611131929190611208565b50604082015181600201556060820151816003019080519060200190611158929190611208565b506080820151816004019080519060200190611175929190611208565b5060a0820151816005015560c08201518160060160006101000a81548173ffffffffffffffffffffffffffffffffffffffff021916908373ffffffffffffffffffffffffffffffffffffffff16021790555050507fc3fbfea1182e832f4606a9e4bd8e4c76681492cf2b269e9e3f97be409dbf5baf3382846040516111fc939291906118fa565b60405180910390a15050565b82805461121490611be7565b90600052602060002090601f016020900481019282611236576000855561127d565b82601f1061124f57805160ff191683800117855561127d565b8280016001018555821561127d579182015b8281111561127c578251825591602001919060010190611261565b5b50905061128a91906112e1565b5090565b6040518060e00160405280600081526020016060815260200160008152602001606081526020016060815260200160008152602001600073ffffffffffffffffffffffffffffffffffffffff1681525090565b5b808211156112fa5760008160009055506001016112e2565b5090565b600061131161130c84611a7d565b611a58565b90508281526020810184848401111561132957600080fd5b611334848285611ba5565b509392505050565b60008135905061134b81611d31565b92915050565b60008135905061136081611d48565b92915050565b600082601f83011261137757600080fd5b81356113878482602086016112fe565b91505092915050565b600060e082840312156113a257600080fd5b6113ac60e0611a58565b905060006113bc84828501611488565b600083015250602082013567ffffffffffffffff8111156113dc57600080fd5b6113e884828501611366565b60208301525060406113fc84828501611488565b604083015250606082013567ffffffffffffffff81111561141c57600080fd5b61142884828501611366565b606083015250608082013567ffffffffffffffff81111561144857600080fd5b61145484828501611366565b60808301525060a061146884828501611488565b60a08301525060c061147c84828501611351565b60c08301525092915050565b60008135905061149781611d5f565b92915050565b6000602082840312156114af57600080fd5b60006114bd8482850161133c565b91505092915050565b600080604083850312156114d957600080fd5b60006114e78582860161133c565b92505060206114f885828601611488565b9150509250929050565b60006020828403121561151457600080fd5b600082013567ffffffffffffffff81111561152e57600080fd5b61153a84828501611366565b91505092915050565b6000806000806080858703121561155957600080fd5b600085013567ffffffffffffffff81111561157357600080fd5b61157f87828801611366565b945050602061159087828801611488565b935050604085013567ffffffffffffffff8111156115ad57600080fd5b6115b987828801611366565b925050606085013567ffffffffffffffff8111156115d657600080fd5b6115e287828801611366565b91505092959194509250565b6000806040838503121561160157600080fd5b600083013567ffffffffffffffff81111561161b57600080fd5b61162785828601611390565b925050602061163885828601611351565b9150509250929050565b600061164e8383611779565b905092915050565b61165f81611b6f565b82525050565b61166e81611b26565b82525050565b61167d81611b26565b82525050565b61168c81611b14565b82525050565b600061169d82611abe565b6116a78185611ae1565b9350836020820285016116b985611aae565b8060005b858110156116f557848403895281516116d68582611642565b94506116e183611ad4565b925060208a019950506001810190506116bd565b50829750879550505050505092915050565b600061171282611ac9565b61171c8185611af2565b935061172c818560208601611bb4565b61173581611d20565b840191505092915050565b600061174b82611ac9565b6117558185611b03565b9350611765818560208601611bb4565b61176e81611d20565b840191505092915050565b600060e08301600083015161179160008601826118cd565b50602083015184820360208601526117a98282611707565b91505060408301516117be60408601826118cd565b50606083015184820360608601526117d68282611707565b915050608083015184820360808601526117f08282611707565b91505060a083015161180560a08601826118cd565b5060c083015161181860c0860182611665565b508091505092915050565b600060e08301600083015161183b60008601826118cd565b50602083015184820360208601526118538282611707565b915050604083015161186860408601826118cd565b50606083015184820360608601526118808282611707565b9150506080830151848203608086015261189a8282611707565b91505060a08301516118af60a08601826118cd565b5060c08301516118c260c0860182611665565b508091505092915050565b6118d681611b58565b82525050565b6118e581611b58565b82525050565b6118f481611b62565b82525050565b600060608201905061190f6000830186611683565b61191c6020830185611656565b818103604083015261192e8184611823565b9050949350505050565b600060208201905081810360008301526119528184611692565b905092915050565b600060208201905081810360008301526119748184611740565b905092915050565b600060208201905081810360008301526119968184611823565b905092915050565b60006020820190506119b360008301846118dc565b92915050565b600060e0820190506119ce600083018a6118dc565b81810360208301526119e08189611740565b90506119ef60408301886118dc565b8181036060830152611a018187611740565b90508181036080830152611a158186611740565b9050611a2460a08301856118dc565b611a3160c0830184611674565b98975050505050505050565b6000602082019050611a5260008301846118eb565b92915050565b6000611a62611a73565b9050611a6e8282611c19565b919050565b6000604051905090565b600067ffffffffffffffff821115611a9857611a97611cf1565b5b611aa182611d20565b9050602081019050919050565b6000819050602082019050919050565b600081519050919050565b600081519050919050565b6000602082019050919050565b600082825260208201905092915050565b600082825260208201905092915050565b600082825260208201905092915050565b6000611b1f82611b38565b9050919050565b6000611b3182611b38565b9050919050565b600073ffffffffffffffffffffffffffffffffffffffff82169050919050565b6000819050919050565b600060ff82169050919050565b6000611b7a82611b81565b9050919050565b6000611b8c82611b93565b9050919050565b6000611b9e82611b38565b9050919050565b82818337600083830152505050565b60005b83811015611bd2578082015181840152602081019050611bb7565b83811115611be1576000848401525b50505050565b60006002820490506001821680611bff57607f821691505b60208210811415611c1357611c12611cc2565b5b50919050565b611c2282611d20565b810181811067ffffffffffffffff82111715611c4157611c40611cf1565b5b80604052505050565b6000611c5582611b58565b91507fffffffffffffffffffffffffffffffffffffffffffffffffffffffffffffffff821415611c8857611c87611c93565b5b600182019050919050565b7f4e487b7100000000000000000000000000000000000000000000000000000000600052601160045260246000fd5b7f4e487b7100000000000000000000000000000000000000000000000000000000600052602260045260246000fd5b7f4e487b7100000000000000000000000000000000000000000000000000000000600052604160045260246000fd5b6000601f19601f8301169050919050565b611d3a81611b14565b8114611d4557600080fd5b50565b611d5181611b26565b8114611d5c57600080fd5b50565b611d6881611b58565b8114611d7357600080fd5b5056fea2646970667358221220db62d0751f779a7aad9a35c208ad82380c6e1f8466cbf295edd640134937e70a64736f6c63430008040033",
  "linkReferences": {},
  "deployedLinkReferences": {}
}