{
  "_format": "hh-sol-artifact-1",
  "contractName": "User",
  "sourceName": "contracts/User.sol",
  "abi": [
    {
      "inputs": [],
      "stateMutability": "nonpayable",
      "type": "constructor"
    },
    {
      "anonymous": false,
      "inputs": [
        {
          "indexed": false,
          "internalType": "uint256",
          "name": "field",
          "type": "uint256"
        },
        {
          "indexed": false,
          "internalType": "string",
          "name": "fileHash",
          "type": "string"
        },
        {
          "indexed": false,
          "internalType": "uint256",
          "name": "fileSize",
          "type": "uint256"
        },
        {
          "indexed": false,
          "internalType": "string",
          "name": "fileType",
          "type": "string"
        },
        {
          "indexed": false,
          "internalType": "string",
          "name": "fileName",
          "type": "string"
        },
        {
          "indexed": false,
          "internalType": "uint256",
          "name": "uploadTime",
          "type": "uint256"
        },
        {
          "indexed": false,
          "internalType": "address payable",
          "name": "uploader",
          "type": "address"
        }
      ],
      "name": "FileUploaded",
      "type": "event"
    },
    {
      "inputs": [],
      "name": "fileCount",
      "outputs": [
        {
          "internalType": "uint256",
          "name": "",
          "type": "uint256"
        }
      ],
      "stateMutability": "view",
      "type": "function"
    },
    {
      "inputs": [
        {
          "internalType": "address",
          "name": "",
          "type": "address"
        },
        {
          "internalType": "uint256",
          "name": "",
          "type": "uint256"
        }
      ],
      "name": "files",
      "outputs": [
        {
          "internalType": "uint256",
          "name": "field",
          "type": "uint256"
        },
        {
          "internalType": "string",
          "name": "fileHash",
          "type": "string"
        },
        {
          "internalType": "uint256",
          "name": "fileSize",
          "type": "uint256"
        },
        {
          "internalType": "string",
          "name": "fileType",
          "type": "string"
        },
        {
          "internalType": "string",
          "name": "fileName",
          "type": "string"
        },
        {
          "internalType": "uint256",
          "name": "uploadTime",
          "type": "uint256"
        },
        {
          "internalType": "address payable",
          "name": "uploader",
          "type": "address"
        }
      ],
      "stateMutability": "view",
      "type": "function"
    },
    {
      "inputs": [],
      "name": "getFiles",
      "outputs": [
        {
          "components": [
            {
              "internalType": "uint256",
              "name": "field",
              "type": "uint256"
            },
            {
              "internalType": "string",
              "name": "fileHash",
              "type": "string"
            },
            {
              "internalType": "uint256",
              "name": "fileSize",
              "type": "uint256"
            },
            {
              "internalType": "string",
              "name": "fileType",
              "type": "string"
            },
            {
              "internalType": "string",
              "name": "fileName",
              "type": "string"
            },
            {
              "internalType": "uint256",
              "name": "uploadTime",
              "type": "uint256"
            },
            {
              "internalType": "address payable",
              "name": "uploader",
              "type": "address"
            }
          ],
          "internalType": "struct User.File",
          "name": "",
          "type": "tuple"
        }
      ],
      "stateMutability": "view",
      "type": "function"
    },
    {
      "inputs": [
        {
          "internalType": "string",
          "name": "_fileHash",
          "type": "string"
        },
        {
          "internalType": "uint256",
          "name": "_fileSize",
          "type": "uint256"
        },
        {
          "internalType": "string",
          "name": "_fileType",
          "type": "string"
        },
        {
          "internalType": "string",
          "name": "_fileName",
          "type": "string"
        }
      ],
      "name": "uploadFile",
      "outputs": [],
      "stateMutability": "nonpayable",
      "type": "function"
    }
  ],
  "bytecode": "0x60806040526000805534801561001457600080fd5b50610f51806100246000396000f3fe608060405234801561001057600080fd5b506004361061004c5760003560e01c806320f21708146100515780632ba6978e1461006d5780632da96d73146100a357806343953519146100c1575b600080fd5b61006b600480360381019061006691906109cc565b6100df565b005b61008760048036038101906100829190610990565b610323565b60405161009a9796959493929190610c0c565b60405180910390f35b6100ab61053a565b6040516100b89190610bcf565b60405180910390f35b6100c9610802565b6040516100d69190610bf1565b60405180910390f35b60008451116100ed57600080fd5b60008251116100fb57600080fd5b600081511161010957600080fd5b600073ffffffffffffffffffffffffffffffffffffffff163373ffffffffffffffffffffffffffffffffffffffff16141561014357600080fd5b6000831161015057600080fd5b60008081548092919061016290610e06565b9190505550600160003373ffffffffffffffffffffffffffffffffffffffff1673ffffffffffffffffffffffffffffffffffffffff1681526020019081526020016000206040518060e0016040528060005481526020018681526020018581526020018481526020018381526020014281526020013373ffffffffffffffffffffffffffffffffffffffff168152509080600181540180825580915050600190039060005260206000209060070201600090919091909150600082015181600001556020820151816001019080519060200190610240929190610808565b50604082015181600201556060820151816003019080519060200190610267929190610808565b506080820151816004019080519060200190610284929190610808565b5060a0820151816005015560c08201518160060160006101000a81548173ffffffffffffffffffffffffffffffffffffffff021916908373ffffffffffffffffffffffffffffffffffffffff16021790555050507f8afab45e252455189e0428faed31ed4afc4c187924fd4f30fcf4fef26b5435366000548585858542336040516103159796959493929190610c0c565b60405180910390a150505050565b6001602052816000526040600020818154811061033f57600080fd5b90600052602060002090600702016000915091505080600001549080600101805461036990610da3565b80601f016020809104026020016040519081016040528092919081815260200182805461039590610da3565b80156103e25780601f106103b7576101008083540402835291602001916103e2565b820191906000526020600020905b8154815290600101906020018083116103c557829003601f168201915b5050505050908060020154908060030180546103fd90610da3565b80601f016020809104026020016040519081016040528092919081815260200182805461042990610da3565b80156104765780601f1061044b57610100808354040283529160200191610476565b820191906000526020600020905b81548152906001019060200180831161045957829003601f168201915b50505050509080600401805461048b90610da3565b80601f01602080910402602001604051908101604052809291908181526020018280546104b790610da3565b80156105045780601f106104d957610100808354040283529160200191610504565b820191906000526020600020905b8154815290600101906020018083116104e757829003601f168201915b5050505050908060050154908060060160009054906101000a900473ffffffffffffffffffffffffffffffffffffffff16905087565b61054261088e565b600160003373ffffffffffffffffffffffffffffffffffffffff1673ffffffffffffffffffffffffffffffffffffffff1681526020019081526020016000206000815481106105ba577f4e487b7100000000000000000000000000000000000000000000000000000000600052603260045260246000fd5b90600052602060002090600702016040518060e0016040529081600082015481526020016001820180546105ed90610da3565b80601f016020809104026020016040519081016040528092919081815260200182805461061990610da3565b80156106665780601f1061063b57610100808354040283529160200191610666565b820191906000526020600020905b81548152906001019060200180831161064957829003601f168201915b505050505081526020016002820154815260200160038201805461068990610da3565b80601f01602080910402602001604051908101604052809291908181526020018280546106b590610da3565b80156107025780601f106106d757610100808354040283529160200191610702565b820191906000526020600020905b8154815290600101906020018083116106e557829003601f168201915b5050505050815260200160048201805461071b90610da3565b80601f016020809104026020016040519081016040528092919081815260200182805461074790610da3565b80156107945780601f1061076957610100808354040283529160200191610794565b820191906000526020600020905b81548152906001019060200180831161077757829003601f168201915b50505050508152602001600582015481526020016006820160009054906101000a900473ffffffffffffffffffffffffffffffffffffffff1673ffffffffffffffffffffffffffffffffffffffff1673ffffffffffffffffffffffffffffffffffffffff1681525050905090565b60005481565b82805461081490610da3565b90600052602060002090601f016020900481019282610836576000855561087d565b82601f1061084f57805160ff191683800117855561087d565b8280016001018555821561087d579182015b8281111561087c578251825591602001919060010190610861565b5b50905061088a91906108e1565b5090565b6040518060e00160405280600081526020016060815260200160008152602001606081526020016060815260200160008152602001600073ffffffffffffffffffffffffffffffffffffffff1681525090565b5b808211156108fa5760008160009055506001016108e2565b5090565b600061091161090c84610cb5565b610c90565b90508281526020810184848401111561092957600080fd5b610934848285610d61565b509392505050565b60008135905061094b81610eed565b92915050565b600082601f83011261096257600080fd5b81356109728482602086016108fe565b91505092915050565b60008135905061098a81610f04565b92915050565b600080604083850312156109a357600080fd5b60006109b18582860161093c565b92505060206109c28582860161097b565b9150509250929050565b600080600080608085870312156109e257600080fd5b600085013567ffffffffffffffff8111156109fc57600080fd5b610a0887828801610951565b9450506020610a198782880161097b565b935050604085013567ffffffffffffffff811115610a3657600080fd5b610a4287828801610951565b925050606085013567ffffffffffffffff811115610a5f57600080fd5b610a6b87828801610951565b91505092959194509250565b610a8081610d25565b82525050565b610a8f81610d25565b82525050565b6000610aa082610ce6565b610aaa8185610cf1565b9350610aba818560208601610d70565b610ac381610edc565b840191505092915050565b6000610ad982610ce6565b610ae38185610d02565b9350610af3818560208601610d70565b610afc81610edc565b840191505092915050565b600060e083016000830151610b1f6000860182610bb1565b5060208301518482036020860152610b378282610a95565b9150506040830151610b4c6040860182610bb1565b5060608301518482036060860152610b648282610a95565b91505060808301518482036080860152610b7e8282610a95565b91505060a0830151610b9360a0860182610bb1565b5060c0830151610ba660c0860182610a77565b508091505092915050565b610bba81610d57565b82525050565b610bc981610d57565b82525050565b60006020820190508181036000830152610be98184610b07565b905092915050565b6000602082019050610c066000830184610bc0565b92915050565b600060e082019050610c21600083018a610bc0565b8181036020830152610c338189610ace565b9050610c426040830188610bc0565b8181036060830152610c548187610ace565b90508181036080830152610c688186610ace565b9050610c7760a0830185610bc0565b610c8460c0830184610a86565b98975050505050505050565b6000610c9a610cab565b9050610ca68282610dd5565b919050565b6000604051905090565b600067ffffffffffffffff821115610cd057610ccf610ead565b5b610cd982610edc565b9050602081019050919050565b600081519050919050565b600082825260208201905092915050565b600082825260208201905092915050565b6000610d1e82610d37565b9050919050565b6000610d3082610d37565b9050919050565b600073ffffffffffffffffffffffffffffffffffffffff82169050919050565b6000819050919050565b82818337600083830152505050565b60005b83811015610d8e578082015181840152602081019050610d73565b83811115610d9d576000848401525b50505050565b60006002820490506001821680610dbb57607f821691505b60208210811415610dcf57610dce610e7e565b5b50919050565b610dde82610edc565b810181811067ffffffffffffffff82111715610dfd57610dfc610ead565b5b80604052505050565b6000610e1182610d57565b91507fffffffffffffffffffffffffffffffffffffffffffffffffffffffffffffffff821415610e4457610e43610e4f565b5b600182019050919050565b7f4e487b7100000000000000000000000000000000000000000000000000000000600052601160045260246000fd5b7f4e487b7100000000000000000000000000000000000000000000000000000000600052602260045260246000fd5b7f4e487b7100000000000000000000000000000000000000000000000000000000600052604160045260246000fd5b6000601f19601f8301169050919050565b610ef681610d13565b8114610f0157600080fd5b50565b610f0d81610d57565b8114610f1857600080fd5b5056fea2646970667358221220257d044452ec266f68e4f144f6d1f74216f15ad39be9d30a6aab6e0fbb535c7764736f6c63430008040033",
  "linkReferences": {},
  "deployedLinkReferences": {}
}